{
  "_format": "hh-sol-artifact-1",
  "contractName": "NeonDrawLottery",
  "sourceName": "contracts/NeonDrawLottery.sol",
  "abi": [
    {
      "inputs": [
        {
          "internalType": "address",
          "name": "initialOwner",
          "type": "address"
        }
      ],
      "stateMutability": "nonpayable",
      "type": "constructor"
    },
    {
      "inputs": [],
      "name": "DrawNotClosed",
      "type": "error"
    },
    {
      "inputs": [],
      "name": "DrawNotFound",
      "type": "error"
    },
    {
      "inputs": [],
      "name": "DrawNotOpen",
      "type": "error"
    },
    {
      "inputs": [],
      "name": "EnforcedPause",
      "type": "error"
    },
    {
      "inputs": [],
      "name": "ExpectedPause",
      "type": "error"
    },
    {
      "inputs": [],
      "name": "InvalidNumbers",
      "type": "error"
    },
    {
      "inputs": [],
      "name": "InvalidWindow",
      "type": "error"
    },
    {
      "inputs": [],
      "name": "NothingToClaim",
      "type": "error"
    },
    {
      "inputs": [
        {
          "internalType": "address",
          "name": "owner",
          "type": "address"
        }
      ],
      "name": "OwnableInvalidOwner",
      "type": "error"
    },
    {
      "inputs": [
        {
          "internalType": "address",
          "name": "account",
          "type": "address"
        }
      ],
      "name": "OwnableUnauthorizedAccount",
      "type": "error"
    },
    {
      "inputs": [],
      "name": "ReentrancyGuardReentrantCall",
      "type": "error"
    },
    {
      "inputs": [],
      "name": "VRFNotConfigured",
      "type": "error"
    },
    {
      "anonymous": false,
      "inputs": [
        {
          "indexed": true,
          "internalType": "uint256",
          "name": "drawId",
          "type": "uint256"
        },
        {
          "indexed": false,
          "internalType": "uint256",
          "name": "ticketCount",
          "type": "uint256"
        },
        {
          "indexed": false,
          "internalType": "uint256",
          "name": "poolBalance",
          "type": "uint256"
        }
      ],
      "name": "DrawClosed",
      "type": "event"
    },
    {
      "anonymous": false,
      "inputs": [
        {
          "indexed": true,
          "internalType": "uint256",
          "name": "drawId",
          "type": "uint256"
        },
        {
          "indexed": false,
          "internalType": "enum NeonDrawLottery.DrawTier",
          "name": "tier",
          "type": "uint8"
        },
        {
          "indexed": false,
          "internalType": "uint64",
          "name": "opensAt",
          "type": "uint64"
        },
        {
          "indexed": false,
          "internalType": "uint64",
          "name": "closesAt",
          "type": "uint64"
        },
        {
          "indexed": false,
          "internalType": "uint256",
          "name": "ticketPrice",
          "type": "uint256"
        },
        {
          "indexed": false,
          "internalType": "uint256",
          "name": "advertisedJackpot",
          "type": "uint256"
        }
      ],
      "name": "DrawCreated",
      "type": "event"
    },
    {
      "anonymous": false,
      "inputs": [
        {
          "indexed": true,
          "internalType": "uint256",
          "name": "drawId",
          "type": "uint256"
        },
        {
          "indexed": false,
          "internalType": "uint256",
          "name": "winnerCount",
          "type": "uint256"
        },
        {
          "indexed": false,
          "internalType": "uint256",
          "name": "totalPaid",
          "type": "uint256"
        }
      ],
      "name": "DrawSettled",
      "type": "event"
    },
    {
      "anonymous": false,
      "inputs": [
        {
          "indexed": true,
          "internalType": "address",
          "name": "previousOwner",
          "type": "address"
        },
        {
          "indexed": true,
          "internalType": "address",
          "name": "newOwner",
          "type": "address"
        }
      ],
      "name": "OwnershipTransferred",
      "type": "event"
    },
    {
      "anonymous": false,
      "inputs": [
        {
          "indexed": false,
          "internalType": "address",
          "name": "account",
          "type": "address"
        }
      ],
      "name": "Paused",
      "type": "event"
    },
    {
      "anonymous": false,
      "inputs": [
        {
          "indexed": true,
          "internalType": "address",
          "name": "winner",
          "type": "address"
        },
        {
          "indexed": false,
          "internalType": "uint256",
          "name": "amount",
          "type": "uint256"
        }
      ],
      "name": "PrizeClaimed",
      "type": "event"
    },
    {
      "anonymous": false,
      "inputs": [
        {
          "indexed": true,
          "internalType": "uint256",
          "name": "ticketId",
          "type": "uint256"
        },
        {
          "indexed": true,
          "internalType": "uint256",
          "name": "drawId",
          "type": "uint256"
        },
        {
          "indexed": true,
          "internalType": "address",
          "name": "buyer",
          "type": "address"
        },
        {
          "indexed": false,
          "internalType": "uint8[6]",
          "name": "numbers",
          "type": "uint8[6]"
        },
        {
          "indexed": false,
          "internalType": "uint256",
          "name": "amountPaid",
          "type": "uint256"
        }
      ],
      "name": "TicketPurchased",
      "type": "event"
    },
    {
      "anonymous": false,
      "inputs": [
        {
          "indexed": false,
          "internalType": "address",
          "name": "account",
          "type": "address"
        }
      ],
      "name": "Unpaused",
      "type": "event"
    },
    {
      "anonymous": false,
      "inputs": [
        {
          "indexed": true,
          "internalType": "uint256",
          "name": "drawId",
          "type": "uint256"
        },
        {
          "indexed": false,
          "internalType": "uint256",
          "name": "requestId",
          "type": "uint256"
        }
      ],
      "name": "VRFRequested",
      "type": "event"
    },
    {
      "inputs": [
        {
          "internalType": "uint256",
          "name": "drawId",
          "type": "uint256"
        },
        {
          "internalType": "uint8[6]",
          "name": "numbers",
          "type": "uint8[6]"
        }
      ],
      "name": "buyTicket",
      "outputs": [],
      "stateMutability": "payable",
      "type": "function"
    },
    {
      "inputs": [],
      "name": "claimPrize",
      "outputs": [],
      "stateMutability": "nonpayable",
      "type": "function"
    },
    {
      "inputs": [
        {
          "internalType": "uint256",
          "name": "drawId",
          "type": "uint256"
        }
      ],
      "name": "closeDraw",
      "outputs": [],
      "stateMutability": "nonpayable",
      "type": "function"
    },
    {
      "inputs": [
        {
          "internalType": "enum NeonDrawLottery.DrawTier",
          "name": "tier",
          "type": "uint8"
        },
        {
          "internalType": "uint64",
          "name": "opensAt",
          "type": "uint64"
        },
        {
          "internalType": "uint64",
          "name": "closesAt",
          "type": "uint64"
        },
        {
          "internalType": "uint256",
          "name": "ticketPrice",
          "type": "uint256"
        },
        {
          "internalType": "uint256",
          "name": "advertisedJackpot",
          "type": "uint256"
        },
        {
          "internalType": "uint256",
          "name": "winnerCount",
          "type": "uint256"
        }
      ],
      "name": "createDraw",
      "outputs": [
        {
          "internalType": "uint256",
          "name": "drawId",
          "type": "uint256"
        }
      ],
      "stateMutability": "nonpayable",
      "type": "function"
    },
    {
      "inputs": [
        {
          "internalType": "uint256",
          "name": "",
          "type": "uint256"
        }
      ],
      "name": "draws",
      "outputs": [
        {
          "internalType": "enum NeonDrawLottery.DrawTier",
          "name": "tier",
          "type": "uint8"
        },
        {
          "internalType": "enum NeonDrawLottery.DrawStatus",
          "name": "status",
          "type": "uint8"
        },
        {
          "internalType": "uint64",
          "name": "opensAt",
          "type": "uint64"
        },
        {
          "internalType": "uint64",
          "name": "closesAt",
          "type": "uint64"
        },
        {
          "internalType": "uint256",
          "name": "ticketPrice",
          "type": "uint256"
        },
        {
          "internalType": "uint256",
          "name": "advertisedJackpot",
          "type": "uint256"
        },
        {
          "internalType": "uint256",
          "name": "poolBalance",
          "type": "uint256"
        },
        {
          "internalType": "uint256",
          "name": "ticketCount",
          "type": "uint256"
        },
        {
          "internalType": "uint256",
          "name": "winnerCount",
          "type": "uint256"
        },
        {
          "internalType": "uint256",
          "name": "vrfRequestId",
          "type": "uint256"
        }
      ],
      "stateMutability": "view",
      "type": "function"
    },
    {
      "inputs": [
        {
          "internalType": "uint256",
          "name": "drawId",
          "type": "uint256"
        },
        {
          "internalType": "uint256[]",
          "name": "winningTicketIds",
          "type": "uint256[]"
        },
        {
          "internalType": "uint256[]",
          "name": "payoutAmounts",
          "type": "uint256[]"
        }
      ],
      "name": "fulfillDraw",
      "outputs": [],
      "stateMutability": "nonpayable",
      "type": "function"
    },
    {
      "inputs": [
        {
          "internalType": "uint256",
          "name": "drawId",
          "type": "uint256"
        }
      ],
      "name": "getDrawTicketIds",
      "outputs": [
        {
          "internalType": "uint256[]",
          "name": "",
          "type": "uint256[]"
        }
      ],
      "stateMutability": "view",
      "type": "function"
    },
    {
      "inputs": [],
      "name": "nextDrawId",
      "outputs": [
        {
          "internalType": "uint256",
          "name": "",
          "type": "uint256"
        }
      ],
      "stateMutability": "view",
      "type": "function"
    },
    {
      "inputs": [],
      "name": "nextTicketId",
      "outputs": [
        {
          "internalType": "uint256",
          "name": "",
          "type": "uint256"
        }
      ],
      "stateMutability": "view",
      "type": "function"
    },
    {
      "inputs": [],
      "name": "owner",
      "outputs": [
        {
          "internalType": "address",
          "name": "",
          "type": "address"
        }
      ],
      "stateMutability": "view",
      "type": "function"
    },
    {
      "inputs": [],
      "name": "pause",
      "outputs": [],
      "stateMutability": "nonpayable",
      "type": "function"
    },
    {
      "inputs": [],
      "name": "paused",
      "outputs": [
        {
          "internalType": "bool",
          "name": "",
          "type": "bool"
        }
      ],
      "stateMutability": "view",
      "type": "function"
    },
    {
      "inputs": [
        {
          "internalType": "address",
          "name": "",
          "type": "address"
        }
      ],
      "name": "pendingClaims",
      "outputs": [
        {
          "internalType": "uint256",
          "name": "",
          "type": "uint256"
        }
      ],
      "stateMutability": "view",
      "type": "function"
    },
    {
      "inputs": [],
      "name": "renounceOwnership",
      "outputs": [],
      "stateMutability": "nonpayable",
      "type": "function"
    },
    {
      "inputs": [
        {
          "internalType": "uint256",
          "name": "drawId",
          "type": "uint256"
        }
      ],
      "name": "requestDrawRandomness",
      "outputs": [],
      "stateMutability": "nonpayable",
      "type": "function"
    },
    {
      "inputs": [
        {
          "internalType": "address",
          "name": "coordinator",
          "type": "address"
        }
      ],
      "name": "setVRFCoordinator",
      "outputs": [],
      "stateMutability": "nonpayable",
      "type": "function"
    },
    {
      "inputs": [
        {
          "internalType": "uint256",
          "name": "",
          "type": "uint256"
        }
      ],
      "name": "tickets",
      "outputs": [
        {
          "internalType": "uint256",
          "name": "drawId",
          "type": "uint256"
        },
        {
          "internalType": "address",
          "name": "owner",
          "type": "address"
        },
        {
          "internalType": "uint64",
          "name": "purchasedAt",
          "type": "uint64"
        },
        {
          "internalType": "bool",
          "name": "claimed",
          "type": "bool"
        }
      ],
      "stateMutability": "view",
      "type": "function"
    },
    {
      "inputs": [
        {
          "internalType": "address",
          "name": "newOwner",
          "type": "address"
        }
      ],
      "name": "transferOwnership",
      "outputs": [],
      "stateMutability": "nonpayable",
      "type": "function"
    },
    {
      "inputs": [],
      "name": "unpause",
      "outputs": [],
      "stateMutability": "nonpayable",
      "type": "function"
    },
    {
      "inputs": [],
      "name": "vrfCoordinator",
      "outputs": [
        {
          "internalType": "contract IJackpotVRF",
          "name": "",
          "type": "address"
        }
      ],
      "stateMutability": "view",
      "type": "function"
    }
  ],
  "bytecode": "0x608060405260018055600160025534801561001957600080fd5b506040516117fe3803806117fe833981016040819052610038916100eb565b806001600160a01b03811661006757604051631e4fbdf760e01b81526000600482015260240160405180910390fd5b6100708161009b565b5060017f9b779b17422d0df92223018b32b4d1fa46e071723d6817e2486d003becc55f00555061011b565b600080546001600160a01b038381166001600160a01b0319831681178455604051919092169283917f8be0079c531659141344cd1fd0a4f28419497f9722a3daafe3b4186f6b6457e09190a35050565b6000602082840312156100fd57600080fd5b81516001600160a01b038116811461011457600080fd5b9392505050565b6116d48061012a6000396000f3fe60806040526004361061011f5760003560e01c80637de99509116100a0578063a3e56fa811610064578063a3e56fa8146103de578063a9bb8798146103fe578063ab9d635e1461041e578063ca78533d1461043e578063f2fde38b1461046b57600080fd5b80637de99509146103445780638456cb5914610357578063868527031461036c5780638da5cb5b1461038c5780639c9ad21a146103be57600080fd5b806350b44712116100e757806350b44712146102485780635c975abb146102da5780636031a52f1461030457806370740ac91461031a578063715018a61461032f57600080fd5b80630cc36c36146101245780631de78499146101c057806322482f64146101ed5780633f4ba83a1461021157806344ff81ce14610228575b600080fd5b34801561013057600080fd5b506101a161013f3660046112c2565b6003602081905260009182526040909120805460018201546002830154938301546004840154600585015460069095015460ff808616976101008704909116966001600160401b03620100008804811697600160501b9004169594919391928a565b6040516101b79a99989796959493929190611305565b60405180910390f35b3480156101cc57600080fd5b506101e06101db3660046112c2565b61048b565b6040516101b7919061136f565b3480156101f957600080fd5b5061020360015481565b6040519081526020016101b7565b34801561021d57600080fd5b506102266104ed565b005b34801561023457600080fd5b506102266102433660046113b3565b6104ff565b34801561025457600080fd5b506102a26102633660046112c2565b60046020526000908152604090208054600182015460039092015490916001600160a01b0316906001600160401b03811690600160401b900460ff1684565b604080519485526001600160a01b0390931660208501526001600160401b0390911691830191909152151560608201526080016101b7565b3480156102e657600080fd5b50600054600160a01b900460ff1660405190151581526020016101b7565b34801561031057600080fd5b5061020360025481565b34801561032657600080fd5b50610226610529565b34801561033b57600080fd5b5061022661064e565b6102266103523660046113e3565b610660565b34801561036357600080fd5b50610226610931565b34801561037857600080fd5b506102266103873660046112c2565b610941565b34801561039857600080fd5b506000546001600160a01b03165b6040516001600160a01b0390911681526020016101b7565b3480156103ca57600080fd5b506102266103d93660046112c2565b610a7c565b3480156103ea57600080fd5b506007546103a6906001600160a01b031681565b34801561040a57600080fd5b50610203610419366004611432565b610b23565b34801561042a57600080fd5b506102266104393660046114e2565b610d47565b34801561044a57600080fd5b506102036104593660046113b3565b60066020526000908152604090205481565b34801561047757600080fd5b506102266104863660046113b3565b610ef2565b6000818152600560209081526040918290208054835181840281018401909452808452606093928301828280156104e157602002820191906000526020600020905b8154815260200190600101908083116104cd575b50505050509050919050565b6104f5610f30565b6104fd610f5d565b565b610507610f30565b600780546001600160a01b0319166001600160a01b0392909216919091179055565b610531610fb2565b3360009081526006602052604081205490819003610562576040516312d37ee560e31b815260040160405180910390fd5b336000818152600660205260408082208290555190919083908381818185875af1925050503d80600081146105b3576040519150601f19603f3d011682016040523d82523d6000602084013e6105b8565b606091505b50509050806106005760405162461bcd60e51b815260206004820152600f60248201526e151c985b9cd9995c8819985a5b1959608a1b60448201526064015b60405180910390fd5b60405182815233907f95681e512bc0fe659e195e06c283eada494316f3d801213e48e7101af92bf7709060200160405180910390a250506104fd600160008051602061167f83398151915255565b610656610f30565b6104fd6000610fce565b61066861101e565b610670610fb2565b600082815260036020526040902080546201000090046001600160401b03161580156106ab57508054600160501b90046001600160401b0316155b156106c95760405163039a603d60e01b815260040160405180910390fd5b60008154610100900460ff1660048111156106e6576106e66112db565b1461070457604051635f15a8f960e01b815260040160405180910390fd5b80546201000090046001600160401b031642108061073357508054600160501b90046001600160401b03164210155b1561075157604051635f15a8f960e01b815260040160405180910390fd5b8060010154341461077557604051635f15a8f960e01b815260040160405180910390fd5b61077e82611049565b600280546000918261078f83611571565b909155506040805160a081018252868152336020820152815160c081810184529394509092918301918690600690839083908082843760009201829052509284525050426001600160401b03166020808401919091526040928301829052848252600481529082902083518155908301516001820180546001600160a01b0319166001600160a01b0390921691909117905590820151610835906002830190600661121a565b506060820151600390910180546080909301511515600160401b0268ffffffffffffffffff199093166001600160401b039092169190911791909117905560008481526005602090815260408220805460018181018355918452918320909101839055600484018054919290916108ad90849061158a565b92505081905550348260030160008282546108c8919061158a565b92505081905550336001600160a01b031684827f9121de6e0e413212ac3617d303a321b65faa5d70bd029011fca9c14b8e2cbe88863460405161090c9291906115b4565b60405180910390a4505061092d600160008051602061167f83398151915255565b5050565b610939610f30565b6104fd61117d565b610949610f30565b600081815260036020526040902060018154610100900460ff166004811115610974576109746112db565b1461099257604051638ad69e8160e01b815260040160405180910390fd5b6007546001600160a01b03166109bb5760405163da8ec84760e01b815260040160405180910390fd5b600754604051632f215ddf60e21b8152600481018490526000916001600160a01b03169063bc85777c906024016020604051808303816000875af1158015610a07573d6000803e3d6000fd5b505050506040513d601f19601f82011682018060405250810190610a2b91906115f7565b60068301819055825461ff00191661020017835560405181815290915083907fc6f253de430148d7581a940518a73a6d98efc85ea9162887a3918443ba67c2129060200160405180910390a2505050565b610a84610f30565b6000818152600360205260408120908154610100900460ff166004811115610aae57610aae6112db565b14610acc57604051635f15a8f960e01b815260040160405180910390fd5b805461ff0019166101001781556004810154600382015460408051928352602083019190915283917f23d964ec419dde6568a63a14f96b7f92b153196a4cda5d4610dbca86f4081646910160405180910390a25050565b6000610b2d610f30565b856001600160401b0316856001600160401b031611610b5f5760405163392334ed60e01b815260040160405180910390fd5b83600003610b805760405163392334ed60e01b815260040160405180910390fd5b60018054906000610b9083611571565b919050559050604051806101400160405280886003811115610bb457610bb46112db565b815260200160008152602001876001600160401b03168152602001866001600160401b03168152602001858152602001848152602001600081526020016000815260200183815260200160008152506003600083815260200190815260200160002060008201518160000160006101000a81548160ff02191690836003811115610c4057610c406112db565b021790555060208201518154829061ff001916610100836004811115610c6857610c686112db565b0217905550604082810151825460608501516001600160401b03908116600160501b0267ffffffffffffffff60501b199190931662010000021671ffffffffffffffffffffffffffffffff000019909116171782556080830151600183015560a0830151600283015560c0830151600383015560e083015160048301556101008301516005830155610120909201516006909101555181907f438034b56a2de8c6ce3ff93698b6a894194ab89874c40cc9cfffcfd84f608f0f90610d35908a908a908a908a908a90611610565b60405180910390a29695505050505050565b610d4f610f30565b600085815260036020526040902060028154610100900460ff166004811115610d7a57610d7a6112db565b14158015610da3575060018154610100900460ff166004811115610da057610da06112db565b14155b15610dc157604051638ad69e8160e01b815260040160405180910390fd5b600084815b81811015610ea0576000600460008a8a85818110610de657610de661164d565b905060200201358152602001908152602001600020905089816000015414610e215760405163039a603d60e01b815260040160405180910390fd5b868683818110610e3357610e3361164d565b60018401546001600160a01b031660009081526006602090815260408220805493909102949094013593925090610e6b90849061158a565b909155508790508683818110610e8357610e8361164d565b9050602002013584610e95919061158a565b935050600101610dc6565b50825461ff001916610300178355604080518281526020810184905281518a927f5534af381aed5631bad664f705a661e5aa78f5938c3caae504fa7e381cc1d381928290030190a25050505050505050565b610efa610f30565b6001600160a01b038116610f2457604051631e4fbdf760e01b8152600060048201526024016105f7565b610f2d81610fce565b50565b6000546001600160a01b031633146104fd5760405163118cdaa760e01b81523360048201526024016105f7565b610f656111c0565b6000805460ff60a01b191690557f5db9ee0a495bf2e6ff9c91a7834c1ba4fdd244a5e8aa4e537bd38aeae4b073aa335b6040516001600160a01b03909116815260200160405180910390a1565b610fba6111ea565b600260008051602061167f83398151915255565b600080546001600160a01b038381166001600160a01b0319831681178455604051919092169283917f8be0079c531659141344cd1fd0a4f28419497f9722a3daafe3b4186f6b6457e09190a35050565b600054600160a01b900460ff16156104fd5760405163d93c066560e01b815260040160405180910390fd5b60005b60068110156110d85760018282600681106110695761106961164d565b60200201602081019061107c9190611663565b60ff1610806110b25750603182826006811061109a5761109a61164d565b6020020160208101906110ad9190611663565b60ff16115b156110d057604051631d2fd6ad60e11b815260040160405180910390fd5b60010161104c565b5060005b600681101561092d5760006110f282600161158a565b90505b6006811015611174578281600681106111105761111061164d565b6020020160208101906111239190611663565b60ff168383600681106111385761113861164d565b60200201602081019061114b9190611663565b60ff160361116c57604051631d2fd6ad60e11b815260040160405180910390fd5b6001016110f5565b506001016110dc565b61118561101e565b6000805460ff60a01b1916600160a01b1790557f62e78cea01bee320cd4e420270b5ea74000d11b0c9f74754ebdbfc544b05a258610f953390565b600054600160a01b900460ff166104fd57604051638dfc202b60e01b815260040160405180910390fd5b60008051602061167f833981519152546002036104fd57604051633ee5aeb560e01b815260040160405180910390fd5b60018301918390821561129d5791602002820160005b8382111561126e57835183826101000a81548160ff021916908360ff1602179055509260200192600101602081600001049283019260010302611230565b801561129b5782816101000a81549060ff021916905560010160208160000104928301926001030261126e565b505b506112a99291506112ad565b5090565b5b808211156112a957600081556001016112ae565b6000602082840312156112d457600080fd5b5035919050565b634e487b7160e01b600052602160045260246000fd5b60048110611301576113016112db565b9052565b6101408101611314828d6112f1565b60058b10611324576113246112db565b602082019a909a526001600160401b039889166040820152969097166060870152608086019490945260a085019290925260c084015260e08301526101008201526101200152919050565b6020808252825182820181905260009190848201906040850190845b818110156113a75783518352928401929184019160010161138b565b50909695505050505050565b6000602082840312156113c557600080fd5b81356001600160a01b03811681146113dc57600080fd5b9392505050565b60008060e083850312156113f657600080fd5b823591508360e08401111561140a57600080fd5b50926020919091019150565b80356001600160401b038116811461142d57600080fd5b919050565b60008060008060008060c0878903121561144b57600080fd5b86356004811061145a57600080fd5b955061146860208801611416565b945061147660408801611416565b9350606087013592506080870135915060a087013590509295509295509295565b60008083601f8401126114a957600080fd5b5081356001600160401b038111156114c057600080fd5b6020830191508360208260051b85010111156114db57600080fd5b9250929050565b6000806000806000606086880312156114fa57600080fd5b8535945060208601356001600160401b038082111561151857600080fd5b61152489838a01611497565b9096509450604088013591508082111561153d57600080fd5b5061154a88828901611497565b969995985093965092949392505050565b634e487b7160e01b600052601160045260246000fd5b6000600182016115835761158361155b565b5060010190565b8082018082111561159d5761159d61155b565b92915050565b803560ff8116811461142d57600080fd5b60e08101818460005b60068110156115e75760ff6115d1836115a3565b16835260209283019291909101906001016115bd565b5050508260c08301529392505050565b60006020828403121561160957600080fd5b5051919050565b60a0810161161e82886112f1565b6001600160401b0380871660208401528086166040840152508360608301528260808301529695505050505050565b634e487b7160e01b600052603260045260246000fd5b60006020828403121561167557600080fd5b6113dc826115a356fe9b779b17422d0df92223018b32b4d1fa46e071723d6817e2486d003becc55f00a264697066735822122085b69b8a1e2dbf8bb0ec5c01961ebc5878d01af4c6e8f665bf663571614e0d1464736f6c63430008180033",
  "linkReferences": {},
  "deployedLinkReferences": {}
}