{
  "_format": "hh-sol-artifact-1",
  "contractName": "MockJackpotVRF",
  "sourceName": "contracts/mocks/MockJackpotVRF.sol",
  "abi": [
    {
      "inputs": [],
      "name": "nextRequestId",
      "outputs": [
        {
          "internalType": "uint256",
          "name": "",
          "type": "uint256"
        }
      ],
      "stateMutability": "view",
      "type": "function"
    },
    {
      "inputs": [
        {
          "internalType": "uint256",
          "name": "",
          "type": "uint256"
        }
      ],
      "name": "requestRandomWords",
      "outputs": [
        {
          "internalType": "uint256",
          "name": "requestId",
          "type": "uint256"
        }
      ],
      "stateMutability": "nonpayable",
      "type": "function"
    }
  ],
  "bytecode": "0x6080604052600160005534801561001557600080fd5b5060e7806100246000396000f3fe6080604052348015600f57600080fd5b506004361060325760003560e01c80636a84a985146037578063bc85777c146051575b600080fd5b603f60005481565b60405190815260200160405180910390f35b603f605c3660046073565b600080548180606983608b565b9091555092915050565b600060208284031215608457600080fd5b5035919050565b60006001820160aa57634e487b7160e01b600052601160045260246000fd5b506001019056fea2646970667358221220bedf1032f42a5265c5c0d72f9427f4d735bec1baf981d955da82fd88b6c3774964736f6c63430008180033",
  "linkReferences": {},
  "deployedLinkReferences": {}
}