{"contracts/NeonDrawLottery.sol":{"NeonDrawLottery":{"abi":[{"inputs":[{"internalType":"address","name":"initialOwner","type":"address"}],"stateMutability":"nonpayable","type":"constructor"},{"inputs":[],"name":"DrawNotClosed","type":"error"},{"inputs":[],"name":"DrawNotFound","type":"error"},{"inputs":[],"name":"DrawNotOpen","type":"error"},{"inputs":[],"name":"EnforcedPause","type":"error"},{"inputs":[],"name":"ExpectedPause","type":"error"},{"inputs":[],"name":"InvalidNumbers","type":"error"},{"inputs":[],"name":"InvalidWindow","type":"error"},{"inputs":[],"name":"NothingToClaim","type":"error"},{"inputs":[{"internalType":"address","name":"owner","type":"address"}],"name":"OwnableInvalidOwner","type":"error"},{"inputs":[{"internalType":"address","name":"account","type":"address"}],"name":"OwnableUnauthorizedAccount","type":"error"},{"inputs":[],"name":"ReentrancyGuardReentrantCall","type":"error"},{"inputs":[],"name":"VRFNotConfigured","type":"error"},{"anonymous":false,"inputs":[{"indexed":true,"internalType":"uint256","name":"drawId","type":"uint256"},{"indexed":false,"internalType":"uint256","name":"ticketCount","type":"uint256"},{"indexed":false,"internalType":"uint256","name":"poolBalance","type":"uint256"}],"name":"DrawClosed","type":"event"},{"anonymous":false,"inputs":[{"indexed":true,"internalType":"uint256","name":"drawId","type":"uint256"},{"indexed":false,"internalType":"enum NeonDrawLottery.DrawTier","name":"tier","type":"uint8"},{"indexed":false,"internalType":"uint64","name":"opensAt","type":"uint64"},{"indexed":false,"internalType":"uint64","name":"closesAt","type":"uint64"},{"indexed":false,"internalType":"uint256","name":"ticketPrice","type":"uint256"},{"indexed":false,"internalType":"uint256","name":"advertisedJackpot","type":"uint256"}],"name":"DrawCreated","type":"event"},{"anonymous":false,"inputs":[{"indexed":true,"internalType":"uint256","name":"drawId","type":"uint256"},{"indexed":false,"internalType":"uint256","name":"winnerCount","type":"uint256"},{"indexed":false,"internalType":"uint256","name":"totalPaid","type":"uint256"}],"name":"DrawSettled","type":"event"},{"anonymous":false,"inputs":[{"indexed":true,"internalType":"address","name":"previousOwner","type":"address"},{"indexed":true,"internalType":"address","name":"newOwner","type":"address"}],"name":"OwnershipTransferred","type":"event"},{"anonymous":false,"inputs":[{"indexed":false,"internalType":"address","name":"account","type":"address"}],"name":"Paused","type":"event"},{"anonymous":false,"inputs":[{"indexed":true,"internalType":"address","name":"winner","type":"address"},{"indexed":false,"internalType":"uint256","name":"amount","type":"uint256"}],"name":"PrizeClaimed","type":"event"},{"anonymous":false,"inputs":[{"indexed":true,"internalType":"uint256","name":"ticketId","type":"uint256"},{"indexed":true,"internalType":"uint256","name":"drawId","type":"uint256"},{"indexed":true,"internalType":"address","name":"buyer","type":"address"},{"indexed":false,"internalType":"uint8[6]","name":"numbers","type":"uint8[6]"},{"indexed":false,"internalType":"uint256","name":"amountPaid","type":"uint256"}],"name":"TicketPurchased","type":"event"},{"anonymous":false,"inputs":[{"indexed":false,"internalType":"address","name":"account","type":"address"}],"name":"Unpaused","type":"event"},{"anonymous":false,"inputs":[{"indexed":true,"internalType":"uint256","name":"drawId","type":"uint256"},{"indexed":false,"internalType":"uint256","name":"requestId","type":"uint256"}],"name":"VRFRequested","type":"event"},{"inputs":[{"internalType":"uint256","name":"drawId","type":"uint256"},{"internalType":"uint8[6]","name":"numbers","type":"uint8[6]"}],"name":"buyTicket","outputs":[],"stateMutability":"payable","type":"function"},{"inputs":[],"name":"claimPrize","outputs":[],"stateMutability":"nonpayable","type":"function"},{"inputs":[{"internalType":"uint256","name":"drawId","type":"uint256"}],"name":"closeDraw","outputs":[],"stateMutability":"nonpayable","type":"function"},{"inputs":[{"internalType":"enum NeonDrawLottery.DrawTier","name":"tier","type":"uint8"},{"internalType":"uint64","name":"opensAt","type":"uint64"},{"internalType":"uint64","name":"closesAt","type":"uint64"},{"internalType":"uint256","name":"ticketPrice","type":"uint256"},{"internalType":"uint256","name":"advertisedJackpot","type":"uint256"},{"internalType":"uint256","name":"winnerCount","type":"uint256"}],"name":"createDraw","outputs":[{"internalType":"uint256","name":"drawId","type":"uint256"}],"stateMutability":"nonpayable","type":"function"},{"inputs":[{"internalType":"uint256","name":"","type":"uint256"}],"name":"draws","outputs":[{"internalType":"enum NeonDrawLottery.DrawTier","name":"tier","type":"uint8"},{"internalType":"enum NeonDrawLottery.DrawStatus","name":"status","type":"uint8"},{"internalType":"uint64","name":"opensAt","type":"uint64"},{"internalType":"uint64","name":"closesAt","type":"uint64"},{"internalType":"uint256","name":"ticketPrice","type":"uint256"},{"internalType":"uint256","name":"advertisedJackpot","type":"uint256"},{"internalType":"uint256","name":"poolBalance","type":"uint256"},{"internalType":"uint256","name":"ticketCount","type":"uint256"},{"internalType":"uint256","name":"winnerCount","type":"uint256"},{"internalType":"uint256","name":"vrfRequestId","type":"uint256"}],"stateMutability":"view","type":"function"},{"inputs":[{"internalType":"uint256","name":"drawId","type":"uint256"},{"internalType":"uint256[]","name":"winningTicketIds","type":"uint256[]"},{"internalType":"uint256[]","name":"payoutAmounts","type":"uint256[]"}],"name":"fulfillDraw","outputs":[],"stateMutability":"nonpayable","type":"function"},{"inputs":[{"internalType":"uint256","name":"drawId","type":"uint256"}],"name":"getDrawTicketIds","outputs":[{"internalType":"uint256[]","name":"","type":"uint256[]"}],"stateMutability":"view","type":"function"},{"inputs":[],"name":"nextDrawId","outputs":[{"internalType":"uint256","name":"","type":"uint256"}],"stateMutability":"view","type":"function"},{"inputs":[],"name":"nextTicketId","outputs":[{"internalType":"uint256","name":"","type":"uint256"}],"stateMutability":"view","type":"function"},{"inputs":[],"name":"owner","outputs":[{"internalType":"address","name":"","type":"address"}],"stateMutability":"view","type":"function"},{"inputs":[],"name":"pause","outputs":[],"stateMutability":"nonpayable","type":"function"},{"inputs":[],"name":"paused","outputs":[{"internalType":"bool","name":"","type":"bool"}],"stateMutability":"view","type":"function"},{"inputs":[{"internalType":"address","name":"","type":"address"}],"name":"pendingClaims","outputs":[{"internalType":"uint256","name":"","type":"uint256"}],"stateMutability":"view","type":"function"},{"inputs":[],"name":"renounceOwnership","outputs":[],"stateMutability":"nonpayable","type":"function"},{"inputs":[{"internalType":"uint256","name":"drawId","type":"uint256"}],"name":"requestDrawRandomness","outputs":[],"stateMutability":"nonpayable","type":"function"},{"inputs":[{"internalType":"address","name":"coordinator","type":"address"}],"name":"setVRFCoordinator","outputs":[],"stateMutability":"nonpayable","type":"function"},{"inputs":[{"internalType":"uint256","name":"","type":"uint256"}],"name":"tickets","outputs":[{"internalType":"uint256","name":"drawId","type":"uint256"},{"internalType":"address","name":"owner","type":"address"},{"internalType":"uint64","name":"purchasedAt","type":"uint64"},{"internalType":"bool","name":"claimed","type":"bool"}],"stateMutability":"view","type":"function"},{"inputs":[{"internalType":"address","name":"newOwner","type":"address"}],"name":"transferOwnership","outputs":[],"stateMutability":"nonpayable","type":"function"},{"inputs":[],"name":"unpause","outputs":[],"stateMutability":"nonpayable","type":"function"},{"inputs":[],"name":"vrfCoordinator","outputs":[{"internalType":"contract IJackpotVRF","name":"","type":"address"}],"stateMutability":"view","type":"function"}],"evm":{"bytecode":{"linkReferences":{},"object":"608060405260018055600160025534801561001957600080fd5b506040516117fe3803806117fe833981016040819052610038916100eb565b806001600160a01b03811661006757604051631e4fbdf760e01b81526000600482015260240160405180910390fd5b6100708161009b565b5060017f9b779b17422d0df92223018b32b4d1fa46e071723d6817e2486d003becc55f00555061011b565b600080546001600160a01b038381166001600160a01b0319831681178455604051919092169283917f8be0079c531659141344cd1fd0a4f28419497f9722a3daafe3b4186f6b6457e09190a35050565b6000602082840312156100fd57600080fd5b81516001600160a01b038116811461011457600080fd5b9392505050565b6116d48061012a6000396000f3fe60806040526004361061011f5760003560e01c80637de99509116100a0578063a3e56fa811610064578063a3e56fa8146103de578063a9bb8798146103fe578063ab9d635e1461041e578063ca78533d1461043e578063f2fde38b1461046b57600080fd5b80637de99509146103445780638456cb5914610357578063868527031461036c5780638da5cb5b1461038c5780639c9ad21a146103be57600080fd5b806350b44712116100e757806350b44712146102485780635c975abb146102da5780636031a52f1461030457806370740ac91461031a578063715018a61461032f57600080fd5b80630cc36c36146101245780631de78499146101c057806322482f64146101ed5780633f4ba83a1461021157806344ff81ce14610228575b600080fd5b34801561013057600080fd5b506101a161013f3660046112c2565b6003602081905260009182526040909120805460018201546002830154938301546004840154600585015460069095015460ff808616976101008704909116966001600160401b03620100008804811697600160501b9004169594919391928a565b6040516101b79a99989796959493929190611305565b60405180910390f35b3480156101cc57600080fd5b506101e06101db3660046112c2565b61048b565b6040516101b7919061136f565b3480156101f957600080fd5b5061020360015481565b6040519081526020016101b7565b34801561021d57600080fd5b506102266104ed565b005b34801561023457600080fd5b506102266102433660046113b3565b6104ff565b34801561025457600080fd5b506102a26102633660046112c2565b60046020526000908152604090208054600182015460039092015490916001600160a01b0316906001600160401b03811690600160401b900460ff1684565b604080519485526001600160a01b0390931660208501526001600160401b0390911691830191909152151560608201526080016101b7565b3480156102e657600080fd5b50600054600160a01b900460ff1660405190151581526020016101b7565b34801561031057600080fd5b5061020360025481565b34801561032657600080fd5b50610226610529565b34801561033b57600080fd5b5061022661064e565b6102266103523660046113e3565b610660565b34801561036357600080fd5b50610226610931565b34801561037857600080fd5b506102266103873660046112c2565b610941565b34801561039857600080fd5b506000546001600160a01b03165b6040516001600160a01b0390911681526020016101b7565b3480156103ca57600080fd5b506102266103d93660046112c2565b610a7c565b3480156103ea57600080fd5b506007546103a6906001600160a01b031681565b34801561040a57600080fd5b50610203610419366004611432565b610b23565b34801561042a57600080fd5b506102266104393660046114e2565b610d47565b34801561044a57600080fd5b506102036104593660046113b3565b60066020526000908152604090205481565b34801561047757600080fd5b506102266104863660046113b3565b610ef2565b6000818152600560209081526040918290208054835181840281018401909452808452606093928301828280156104e157602002820191906000526020600020905b8154815260200190600101908083116104cd575b50505050509050919050565b6104f5610f30565b6104fd610f5d565b565b610507610f30565b600780546001600160a01b0319166001600160a01b0392909216919091179055565b610531610fb2565b3360009081526006602052604081205490819003610562576040516312d37ee560e31b815260040160405180910390fd5b336000818152600660205260408082208290555190919083908381818185875af1925050503d80600081146105b3576040519150601f19603f3d011682016040523d82523d6000602084013e6105b8565b606091505b50509050806106005760405162461bcd60e51b815260206004820152600f60248201526e151c985b9cd9995c8819985a5b1959608a1b60448201526064015b60405180910390fd5b60405182815233907f95681e512bc0fe659e195e06c283eada494316f3d801213e48e7101af92bf7709060200160405180910390a250506104fd600160008051602061167f83398151915255565b610656610f30565b6104fd6000610fce565b61066861101e565b610670610fb2565b600082815260036020526040902080546201000090046001600160401b03161580156106ab57508054600160501b90046001600160401b0316155b156106c95760405163039a603d60e01b815260040160405180910390fd5b60008154610100900460ff1660048111156106e6576106e66112db565b1461070457604051635f15a8f960e01b815260040160405180910390fd5b80546201000090046001600160401b031642108061073357508054600160501b90046001600160401b03164210155b1561075157604051635f15a8f960e01b815260040160405180910390fd5b8060010154341461077557604051635f15a8f960e01b815260040160405180910390fd5b61077e82611049565b600280546000918261078f83611571565b909155506040805160a081018252868152336020820152815160c081810184529394509092918301918690600690839083908082843760009201829052509284525050426001600160401b03166020808401919091526040928301829052848252600481529082902083518155908301516001820180546001600160a01b0319166001600160a01b0390921691909117905590820151610835906002830190600661121a565b506060820151600390910180546080909301511515600160401b0268ffffffffffffffffff199093166001600160401b039092169190911791909117905560008481526005602090815260408220805460018181018355918452918320909101839055600484018054919290916108ad90849061158a565b92505081905550348260030160008282546108c8919061158a565b92505081905550336001600160a01b031684827f9121de6e0e413212ac3617d303a321b65faa5d70bd029011fca9c14b8e2cbe88863460405161090c9291906115b4565b60405180910390a4505061092d600160008051602061167f83398151915255565b5050565b610939610f30565b6104fd61117d565b610949610f30565b600081815260036020526040902060018154610100900460ff166004811115610974576109746112db565b1461099257604051638ad69e8160e01b815260040160405180910390fd5b6007546001600160a01b03166109bb5760405163da8ec84760e01b815260040160405180910390fd5b600754604051632f215ddf60e21b8152600481018490526000916001600160a01b03169063bc85777c906024016020604051808303816000875af1158015610a07573d6000803e3d6000fd5b505050506040513d601f19601f82011682018060405250810190610a2b91906115f7565b60068301819055825461ff00191661020017835560405181815290915083907fc6f253de430148d7581a940518a73a6d98efc85ea9162887a3918443ba67c2129060200160405180910390a2505050565b610a84610f30565b6000818152600360205260408120908154610100900460ff166004811115610aae57610aae6112db565b14610acc57604051635f15a8f960e01b815260040160405180910390fd5b805461ff0019166101001781556004810154600382015460408051928352602083019190915283917f23d964ec419dde6568a63a14f96b7f92b153196a4cda5d4610dbca86f4081646910160405180910390a25050565b6000610b2d610f30565b856001600160401b0316856001600160401b031611610b5f5760405163392334ed60e01b815260040160405180910390fd5b83600003610b805760405163392334ed60e01b815260040160405180910390fd5b60018054906000610b9083611571565b919050559050604051806101400160405280886003811115610bb457610bb46112db565b815260200160008152602001876001600160401b03168152602001866001600160401b03168152602001858152602001848152602001600081526020016000815260200183815260200160008152506003600083815260200190815260200160002060008201518160000160006101000a81548160ff02191690836003811115610c4057610c406112db565b021790555060208201518154829061ff001916610100836004811115610c6857610c686112db565b0217905550604082810151825460608501516001600160401b03908116600160501b0267ffffffffffffffff60501b199190931662010000021671ffffffffffffffffffffffffffffffff000019909116171782556080830151600183015560a0830151600283015560c0830151600383015560e083015160048301556101008301516005830155610120909201516006909101555181907f438034b56a2de8c6ce3ff93698b6a894194ab89874c40cc9cfffcfd84f608f0f90610d35908a908a908a908a908a90611610565b60405180910390a29695505050505050565b610d4f610f30565b600085815260036020526040902060028154610100900460ff166004811115610d7a57610d7a6112db565b14158015610da3575060018154610100900460ff166004811115610da057610da06112db565b14155b15610dc157604051638ad69e8160e01b815260040160405180910390fd5b600084815b81811015610ea0576000600460008a8a85818110610de657610de661164d565b905060200201358152602001908152602001600020905089816000015414610e215760405163039a603d60e01b815260040160405180910390fd5b868683818110610e3357610e3361164d565b60018401546001600160a01b031660009081526006602090815260408220805493909102949094013593925090610e6b90849061158a565b909155508790508683818110610e8357610e8361164d565b9050602002013584610e95919061158a565b935050600101610dc6565b50825461ff001916610300178355604080518281526020810184905281518a927f5534af381aed5631bad664f705a661e5aa78f5938c3caae504fa7e381cc1d381928290030190a25050505050505050565b610efa610f30565b6001600160a01b038116610f2457604051631e4fbdf760e01b8152600060048201526024016105f7565b610f2d81610fce565b50565b6000546001600160a01b031633146104fd5760405163118cdaa760e01b81523360048201526024016105f7565b610f656111c0565b6000805460ff60a01b191690557f5db9ee0a495bf2e6ff9c91a7834c1ba4fdd244a5e8aa4e537bd38aeae4b073aa335b6040516001600160a01b03909116815260200160405180910390a1565b610fba6111ea565b600260008051602061167f83398151915255565b600080546001600160a01b038381166001600160a01b0319831681178455604051919092169283917f8be0079c531659141344cd1fd0a4f28419497f9722a3daafe3b4186f6b6457e09190a35050565b600054600160a01b900460ff16156104fd5760405163d93c066560e01b815260040160405180910390fd5b60005b60068110156110d85760018282600681106110695761106961164d565b60200201602081019061107c9190611663565b60ff1610806110b25750603182826006811061109a5761109a61164d565b6020020160208101906110ad9190611663565b60ff16115b156110d057604051631d2fd6ad60e11b815260040160405180910390fd5b60010161104c565b5060005b600681101561092d5760006110f282600161158a565b90505b6006811015611174578281600681106111105761111061164d565b6020020160208101906111239190611663565b60ff168383600681106111385761113861164d565b60200201602081019061114b9190611663565b60ff160361116c57604051631d2fd6ad60e11b815260040160405180910390fd5b6001016110f5565b506001016110dc565b61118561101e565b6000805460ff60a01b1916600160a01b1790557f62e78cea01bee320cd4e420270b5ea74000d11b0c9f74754ebdbfc544b05a258610f953390565b600054600160a01b900460ff166104fd57604051638dfc202b60e01b815260040160405180910390fd5b60008051602061167f833981519152546002036104fd57604051633ee5aeb560e01b815260040160405180910390fd5b60018301918390821561129d5791602002820160005b8382111561126e57835183826101000a81548160ff021916908360ff1602179055509260200192600101602081600001049283019260010302611230565b801561129b5782816101000a81549060ff021916905560010160208160000104928301926001030261126e565b505b506112a99291506112ad565b5090565b5b808211156112a957600081556001016112ae565b6000602082840312156112d457600080fd5b5035919050565b634e487b7160e01b600052602160045260246000fd5b60048110611301576113016112db565b9052565b6101408101611314828d6112f1565b60058b10611324576113246112db565b602082019a909a526001600160401b039889166040820152969097166060870152608086019490945260a085019290925260c084015260e08301526101008201526101200152919050565b6020808252825182820181905260009190848201906040850190845b818110156113a75783518352928401929184019160010161138b565b50909695505050505050565b6000602082840312156113c557600080fd5b81356001600160a01b03811681146113dc57600080fd5b9392505050565b60008060e083850312156113f657600080fd5b823591508360e08401111561140a57600080fd5b50926020919091019150565b80356001600160401b038116811461142d57600080fd5b919050565b60008060008060008060c0878903121561144b57600080fd5b86356004811061145a57600080fd5b955061146860208801611416565b945061147660408801611416565b9350606087013592506080870135915060a087013590509295509295509295565b60008083601f8401126114a957600080fd5b5081356001600160401b038111156114c057600080fd5b6020830191508360208260051b85010111156114db57600080fd5b9250929050565b6000806000806000606086880312156114fa57600080fd5b8535945060208601356001600160401b038082111561151857600080fd5b61152489838a01611497565b9096509450604088013591508082111561153d57600080fd5b5061154a88828901611497565b969995985093965092949392505050565b634e487b7160e01b600052601160045260246000fd5b6000600182016115835761158361155b565b5060010190565b8082018082111561159d5761159d61155b565b92915050565b803560ff8116811461142d57600080fd5b60e08101818460005b60068110156115e75760ff6115d1836115a3565b16835260209283019291909101906001016115bd565b5050508260c08301529392505050565b60006020828403121561160957600080fd5b5051919050565b60a0810161161e82886112f1565b6001600160401b0380871660208401528086166040840152508360608301528260808301529695505050505050565b634e487b7160e01b600052603260045260246000fd5b60006020828403121561167557600080fd5b6113dc826115a356fe9b779b17422d0df92223018b32b4d1fa46e071723d6817e2486d003becc55f00a264697066735822122064d2f7c4eed2930edf0388de358e9f3e569c1ebf09dac7e6eb97cf2962f629df64736f6c63430008180033","opcodes":"PUSH1 0x80 PUSH1 0x40 MSTORE PUSH1 0x1 DUP1 SSTORE PUSH1 0x1 PUSH1 0x2 SSTORE CALLVALUE DUP1 ISZERO PUSH2 0x19 JUMPI PUSH1 0x0 DUP1 REVERT JUMPDEST POP PUSH1 0x40 MLOAD PUSH2 0x17FE CODESIZE SUB DUP1 PUSH2 0x17FE DUP4 CODECOPY DUP2 ADD PUSH1 0x40 DUP2 SWAP1 MSTORE PUSH2 0x38 SWAP2 PUSH2 0xEB JUMP JUMPDEST DUP1 PUSH1 0x1 PUSH1 0x1 PUSH1 0xA0 SHL SUB DUP2 AND PUSH2 0x67 JUMPI PUSH1 0x40 MLOAD PUSH4 0x1E4FBDF7 PUSH1 0xE0 SHL DUP2 MSTORE PUSH1 0x0 PUSH1 0x4 DUP3 ADD MSTORE PUSH1 0x24 ADD PUSH1 0x40 MLOAD DUP1 SWAP2 SUB SWAP1 REVERT JUMPDEST PUSH2 0x70 DUP2 PUSH2 0x9B JUMP JUMPDEST POP PUSH1 0x1 PUSH32 0x9B779B17422D0DF92223018B32B4D1FA46E071723D6817E2486D003BECC55F00 SSTORE POP PUSH2 0x11B JUMP JUMPDEST PUSH1 0x0 DUP1 SLOAD PUSH1 0x1 PUSH1 0x1 PUSH1 0xA0 SHL SUB DUP4 DUP2 AND PUSH1 0x1 PUSH1 0x1 PUSH1 0xA0 SHL SUB NOT DUP4 AND DUP2 OR DUP5 SSTORE PUSH1 0x40 MLOAD SWAP2 SWAP1 SWAP3 AND SWAP3 DUP4 SWAP2 PUSH32 0x8BE0079C531659141344CD1FD0A4F28419497F9722A3DAAFE3B4186F6B6457E0 SWAP2 SWAP1 LOG3 POP POP JUMP JUMPDEST PUSH1 0x0 PUSH1 0x20 DUP3 DUP5 SUB SLT ISZERO PUSH2 0xFD JUMPI PUSH1 0x0 DUP1 REVERT JUMPDEST DUP2 MLOAD PUSH1 0x1 PUSH1 0x1 PUSH1 0xA0 SHL SUB DUP2 AND DUP2 EQ PUSH2 0x114 JUMPI PUSH1 0x0 DUP1 REVERT JUMPDEST SWAP4 SWAP3 POP POP POP JUMP JUMPDEST PUSH2 0x16D4 DUP1 PUSH2 0x12A PUSH1 0x0 CODECOPY PUSH1 0x0 RETURN INVALID PUSH1 0x80 PUSH1 0x40 MSTORE PUSH1 0x4 CALLDATASIZE LT PUSH2 0x11F JUMPI PUSH1 0x0 CALLDATALOAD PUSH1 0xE0 SHR DUP1 PUSH4 0x7DE99509 GT PUSH2 0xA0 JUMPI DUP1 PUSH4 0xA3E56FA8 GT PUSH2 0x64 JUMPI DUP1 PUSH4 0xA3E56FA8 EQ PUSH2 0x3DE JUMPI DUP1 PUSH4 0xA9BB8798 EQ PUSH2 0x3FE JUMPI DUP1 PUSH4 0xAB9D635E EQ PUSH2 0x41E JUMPI DUP1 PUSH4 0xCA78533D EQ PUSH2 0x43E JUMPI DUP1 PUSH4 0xF2FDE38B EQ PUSH2 0x46B JUMPI PUSH1 0x0 DUP1 REVERT JUMPDEST DUP1 PUSH4 0x7DE99509 EQ PUSH2 0x344 JUMPI DUP1 PUSH4 0x8456CB59 EQ PUSH2 0x357 JUMPI DUP1 PUSH4 0x86852703 EQ PUSH2 0x36C JUMPI DUP1 PUSH4 0x8DA5CB5B EQ PUSH2 0x38C JUMPI DUP1 PUSH4 0x9C9AD21A EQ PUSH2 0x3BE JUMPI PUSH1 0x0 DUP1 REVERT JUMPDEST DUP1 PUSH4 0x50B44712 GT PUSH2 0xE7 JUMPI DUP1 PUSH4 0x50B44712 EQ PUSH2 0x248 JUMPI DUP1 PUSH4 0x5C975ABB EQ PUSH2 0x2DA JUMPI DUP1 PUSH4 0x6031A52F EQ PUSH2 0x304 JUMPI DUP1 PUSH4 0x70740AC9 EQ PUSH2 0x31A JUMPI DUP1 PUSH4 0x715018A6 EQ PUSH2 0x32F JUMPI PUSH1 0x0 DUP1 REVERT JUMPDEST DUP1 PUSH4 0xCC36C36 EQ PUSH2 0x124 JUMPI DUP1 PUSH4 0x1DE78499 EQ PUSH2 0x1C0 JUMPI DUP1 PUSH4 0x22482F64 EQ PUSH2 0x1ED JUMPI DUP1 PUSH4 0x3F4BA83A EQ PUSH2 0x211 JUMPI DUP1 PUSH4 0x44FF81CE EQ PUSH2 0x228 JUMPI JUMPDEST PUSH1 0x0 DUP1 REVERT JUMPDEST CALLVALUE DUP1 ISZERO PUSH2 0x130 JUMPI PUSH1 0x0 DUP1 REVERT JUMPDEST POP PUSH2 0x1A1 PUSH2 0x13F CALLDATASIZE PUSH1 0x4 PUSH2 0x12C2 JUMP JUMPDEST PUSH1 0x3 PUSH1 0x20 DUP2 SWAP1 MSTORE PUSH1 0x0 SWAP2 DUP3 MSTORE PUSH1 0x40 SWAP1 SWAP2 KECCAK256 DUP1 SLOAD PUSH1 0x1 DUP3 ADD SLOAD PUSH1 0x2 DUP4 ADD SLOAD SWAP4 DUP4 ADD SLOAD PUSH1 0x4 DUP5 ADD SLOAD PUSH1 0x5 DUP6 ADD SLOAD PUSH1 0x6 SWAP1 SWAP6 ADD SLOAD PUSH1 0xFF DUP1 DUP7 AND SWAP8 PUSH2 0x100 DUP8 DIV SWAP1 SWAP2 AND SWAP7 PUSH1 0x1 PUSH1 0x1 PUSH1 0x40 SHL SUB PUSH3 0x10000 DUP9 DIV DUP2 AND SWAP8 PUSH1 0x1 PUSH1 0x50 SHL SWAP1 DIV AND SWAP6 SWAP5 SWAP2 SWAP4 SWAP2 SWAP3 DUP11 JUMP JUMPDEST PUSH1 0x40 MLOAD PUSH2 0x1B7 SWAP11 SWAP10 SWAP9 SWAP8 SWAP7 SWAP6 SWAP5 SWAP4 SWAP3 SWAP2 SWAP1 PUSH2 0x1305 JUMP JUMPDEST PUSH1 0x40 MLOAD DUP1 SWAP2 SUB SWAP1 RETURN JUMPDEST CALLVALUE DUP1 ISZERO PUSH2 0x1CC JUMPI PUSH1 0x0 DUP1 REVERT JUMPDEST POP PUSH2 0x1E0 PUSH2 0x1DB CALLDATASIZE PUSH1 0x4 PUSH2 0x12C2 JUMP JUMPDEST PUSH2 0x48B JUMP JUMPDEST PUSH1 0x40 MLOAD PUSH2 0x1B7 SWAP2 SWAP1 PUSH2 0x136F JUMP JUMPDEST CALLVALUE DUP1 ISZERO PUSH2 0x1F9 JUMPI PUSH1 0x0 DUP1 REVERT JUMPDEST POP PUSH2 0x203 PUSH1 0x1 SLOAD DUP2 JUMP JUMPDEST PUSH1 0x40 MLOAD SWAP1 DUP2 MSTORE PUSH1 0x20 ADD PUSH2 0x1B7 JUMP JUMPDEST CALLVALUE DUP1 ISZERO PUSH2 0x21D JUMPI PUSH1 0x0 DUP1 REVERT JUMPDEST POP PUSH2 0x226 PUSH2 0x4ED JUMP JUMPDEST STOP JUMPDEST CALLVALUE DUP1 ISZERO PUSH2 0x234 JUMPI PUSH1 0x0 DUP1 REVERT JUMPDEST POP PUSH2 0x226 PUSH2 0x243 CALLDATASIZE PUSH1 0x4 PUSH2 0x13B3 JUMP JUMPDEST PUSH2 0x4FF JUMP JUMPDEST CALLVALUE DUP1 ISZERO PUSH2 0x254 JUMPI PUSH1 0x0 DUP1 REVERT JUMPDEST POP PUSH2 0x2A2 PUSH2 0x263 CALLDATASIZE PUSH1 0x4 PUSH2 0x12C2 JUMP JUMPDEST PUSH1 0x4 PUSH1 0x20 MSTORE PUSH1 0x0 SWAP1 DUP2 MSTORE PUSH1 0x40 SWAP1 KECCAK256 DUP1 SLOAD PUSH1 0x1 DUP3 ADD SLOAD PUSH1 0x3 SWAP1 SWAP3 ADD SLOAD SWAP1 SWAP2 PUSH1 0x1 PUSH1 0x1 PUSH1 0xA0 SHL SUB AND SWAP1 PUSH1 0x1 PUSH1 0x1 PUSH1 0x40 SHL SUB DUP2 AND SWAP1 PUSH1 0x1 PUSH1 0x40 SHL SWAP1 DIV PUSH1 0xFF AND DUP5 JUMP JUMPDEST PUSH1 0x40 DUP1 MLOAD SWAP5 DUP6 MSTORE PUSH1 0x1 PUSH1 0x1 PUSH1 0xA0 SHL SUB SWAP1 SWAP4 AND PUSH1 0x20 DUP6 ADD MSTORE PUSH1 0x1 PUSH1 0x1 PUSH1 0x40 SHL SUB SWAP1 SWAP2 AND SWAP2 DUP4 ADD SWAP2 SWAP1 SWAP2 MSTORE ISZERO ISZERO PUSH1 0x60 DUP3 ADD MSTORE PUSH1 0x80 ADD PUSH2 0x1B7 JUMP JUMPDEST CALLVALUE DUP1 ISZERO PUSH2 0x2E6 JUMPI PUSH1 0x0 DUP1 REVERT JUMPDEST POP PUSH1 0x0 SLOAD PUSH1 0x1 PUSH1 0xA0 SHL SWAP1 DIV PUSH1 0xFF AND PUSH1 0x40 MLOAD SWAP1 ISZERO ISZERO DUP2 MSTORE PUSH1 0x20 ADD PUSH2 0x1B7 JUMP JUMPDEST CALLVALUE DUP1 ISZERO PUSH2 0x310 JUMPI PUSH1 0x0 DUP1 REVERT JUMPDEST POP PUSH2 0x203 PUSH1 0x2 SLOAD DUP2 JUMP JUMPDEST CALLVALUE DUP1 ISZERO PUSH2 0x326 JUMPI PUSH1 0x0 DUP1 REVERT JUMPDEST POP PUSH2 0x226 PUSH2 0x529 JUMP JUMPDEST CALLVALUE DUP1 ISZERO PUSH2 0x33B JUMPI PUSH1 0x0 DUP1 REVERT JUMPDEST POP PUSH2 0x226 PUSH2 0x64E JUMP JUMPDEST PUSH2 0x226 PUSH2 0x352 CALLDATASIZE PUSH1 0x4 PUSH2 0x13E3 JUMP JUMPDEST PUSH2 0x660 JUMP JUMPDEST CALLVALUE DUP1 ISZERO PUSH2 0x363 JUMPI PUSH1 0x0 DUP1 REVERT JUMPDEST POP PUSH2 0x226 PUSH2 0x931 JUMP JUMPDEST CALLVALUE DUP1 ISZERO PUSH2 0x378 JUMPI PUSH1 0x0 DUP1 REVERT JUMPDEST POP PUSH2 0x226 PUSH2 0x387 CALLDATASIZE PUSH1 0x4 PUSH2 0x12C2 JUMP JUMPDEST PUSH2 0x941 JUMP JUMPDEST CALLVALUE DUP1 ISZERO PUSH2 0x398 JUMPI PUSH1 0x0 DUP1 REVERT JUMPDEST POP PUSH1 0x0 SLOAD PUSH1 0x1 PUSH1 0x1 PUSH1 0xA0 SHL SUB AND JUMPDEST PUSH1 0x40 MLOAD PUSH1 0x1 PUSH1 0x1 PUSH1 0xA0 SHL SUB SWAP1 SWAP2 AND DUP2 MSTORE PUSH1 0x20 ADD PUSH2 0x1B7 JUMP JUMPDEST CALLVALUE DUP1 ISZERO PUSH2 0x3CA JUMPI PUSH1 0x0 DUP1 REVERT JUMPDEST POP PUSH2 0x226 PUSH2 0x3D9 CALLDATASIZE PUSH1 0x4 PUSH2 0x12C2 JUMP JUMPDEST PUSH2 0xA7C JUMP JUMPDEST CALLVALUE DUP1 ISZERO PUSH2 0x3EA JUMPI PUSH1 0x0 DUP1 REVERT JUMPDEST POP PUSH1 0x7 SLOAD PUSH2 0x3A6 SWAP1 PUSH1 0x1 PUSH1 0x1 PUSH1 0xA0 SHL SUB AND DUP2 JUMP JUMPDEST CALLVALUE DUP1 ISZERO PUSH2 0x40A JUMPI PUSH1 0x0 DUP1 REVERT JUMPDEST POP PUSH2 0x203 PUSH2 0x419 CALLDATASIZE PUSH1 0x4 PUSH2 0x1432 JUMP JUMPDEST PUSH2 0xB23 JUMP JUMPDEST CALLVALUE DUP1 ISZERO PUSH2 0x42A JUMPI PUSH1 0x0 DUP1 REVERT JUMPDEST POP PUSH2 0x226 PUSH2 0x439 CALLDATASIZE PUSH1 0x4 PUSH2 0x14E2 JUMP JUMPDEST PUSH2 0xD47 JUMP JUMPDEST CALLVALUE DUP1 ISZERO PUSH2 0x44A JUMPI PUSH1 0x0 DUP1 REVERT JUMPDEST POP PUSH2 0x203 PUSH2 0x459 CALLDATASIZE PUSH1 0x4 PUSH2 0x13B3 JUMP JUMPDEST PUSH1 0x6 PUSH1 0x20 MSTORE PUSH1 0x0 SWAP1 DUP2 MSTORE PUSH1 0x40 SWAP1 KECCAK256 SLOAD DUP2 JUMP JUMPDEST CALLVALUE DUP1 ISZERO PUSH2 0x477 JUMPI PUSH1 0x0 DUP1 REVERT JUMPDEST POP PUSH2 0x226 PUSH2 0x486 CALLDATASIZE PUSH1 0x4 PUSH2 0x13B3 JUMP JUMPDEST PUSH2 0xEF2 JUMP JUMPDEST PUSH1 0x0 DUP2 DUP2 MSTORE PUSH1 0x5 PUSH1 0x20 SWAP1 DUP2 MSTORE PUSH1 0x40 SWAP2 DUP3 SWAP1 KECCAK256 DUP1 SLOAD DUP4 MLOAD DUP2 DUP5 MUL DUP2 ADD DUP5 ADD SWAP1 SWAP5 MSTORE DUP1 DUP5 MSTORE PUSH1 0x60 SWAP4 SWAP3 DUP4 ADD DUP3 DUP3 DUP1 ISZERO PUSH2 0x4E1 JUMPI PUSH1 0x20 MUL DUP3 ADD SWAP2 SWAP1 PUSH1 0x0 MSTORE PUSH1 0x20 PUSH1 0x0 KECCAK256 SWAP1 JUMPDEST DUP2 SLOAD DUP2 MSTORE PUSH1 0x20 ADD SWAP1 PUSH1 0x1 ADD SWAP1 DUP1 DUP4 GT PUSH2 0x4CD JUMPI JUMPDEST POP POP POP POP POP SWAP1 POP SWAP2 SWAP1 POP JUMP JUMPDEST PUSH2 0x4F5 PUSH2 0xF30 JUMP JUMPDEST PUSH2 0x4FD PUSH2 0xF5D JUMP JUMPDEST JUMP JUMPDEST PUSH2 0x507 PUSH2 0xF30 JUMP JUMPDEST PUSH1 0x7 DUP1 SLOAD PUSH1 0x1 PUSH1 0x1 PUSH1 0xA0 SHL SUB NOT AND PUSH1 0x1 PUSH1 0x1 PUSH1 0xA0 SHL SUB SWAP3 SWAP1 SWAP3 AND SWAP2 SWAP1 SWAP2 OR SWAP1 SSTORE JUMP JUMPDEST PUSH2 0x531 PUSH2 0xFB2 JUMP JUMPDEST CALLER PUSH1 0x0 SWAP1 DUP2 MSTORE PUSH1 0x6 PUSH1 0x20 MSTORE PUSH1 0x40 DUP2 KECCAK256 SLOAD SWAP1 DUP2 SWAP1 SUB PUSH2 0x562 JUMPI PUSH1 0x40 MLOAD PUSH4 0x12D37EE5 PUSH1 0xE3 SHL DUP2 MSTORE PUSH1 0x4 ADD PUSH1 0x40 MLOAD DUP1 SWAP2 SUB SWAP1 REVERT JUMPDEST CALLER PUSH1 0x0 DUP2 DUP2 MSTORE PUSH1 0x6 PUSH1 0x20 MSTORE PUSH1 0x40 DUP1 DUP3 KECCAK256 DUP3 SWAP1 SSTORE MLOAD SWAP1 SWAP2 SWAP1 DUP4 SWAP1 DUP4 DUP2 DUP2 DUP2 DUP6 DUP8 GAS CALL SWAP3 POP POP POP RETURNDATASIZE DUP1 PUSH1 0x0 DUP2 EQ PUSH2 0x5B3 JUMPI PUSH1 0x40 MLOAD SWAP2 POP PUSH1 0x1F NOT PUSH1 0x3F RETURNDATASIZE ADD AND DUP3 ADD PUSH1 0x40 MSTORE RETURNDATASIZE DUP3 MSTORE RETURNDATASIZE PUSH1 0x0 PUSH1 0x20 DUP5 ADD RETURNDATACOPY PUSH2 0x5B8 JUMP JUMPDEST PUSH1 0x60 SWAP2 POP JUMPDEST POP POP SWAP1 POP DUP1 PUSH2 0x600 JUMPI PUSH1 0x40 MLOAD PUSH3 0x461BCD PUSH1 0xE5 SHL DUP2 MSTORE PUSH1 0x20 PUSH1 0x4 DUP3 ADD MSTORE PUSH1 0xF PUSH1 0x24 DUP3 ADD MSTORE PUSH15 0x151C985B9CD9995C8819985A5B1959 PUSH1 0x8A SHL PUSH1 0x44 DUP3 ADD MSTORE PUSH1 0x64 ADD JUMPDEST PUSH1 0x40 MLOAD DUP1 SWAP2 SUB SWAP1 REVERT JUMPDEST PUSH1 0x40 MLOAD DUP3 DUP2 MSTORE CALLER SWAP1 PUSH32 0x95681E512BC0FE659E195E06C283EADA494316F3D801213E48E7101AF92BF770 SWAP1 PUSH1 0x20 ADD PUSH1 0x40 MLOAD DUP1 SWAP2 SUB SWAP1 LOG2 POP POP PUSH2 0x4FD PUSH1 0x1 PUSH1 0x0 DUP1 MLOAD PUSH1 0x20 PUSH2 0x167F DUP4 CODECOPY DUP2 MLOAD SWAP2 MSTORE SSTORE JUMP JUMPDEST PUSH2 0x656 PUSH2 0xF30 JUMP JUMPDEST PUSH2 0x4FD PUSH1 0x0 PUSH2 0xFCE JUMP JUMPDEST PUSH2 0x668 PUSH2 0x101E JUMP JUMPDEST PUSH2 0x670 PUSH2 0xFB2 JUMP JUMPDEST PUSH1 0x0 DUP3 DUP2 MSTORE PUSH1 0x3 PUSH1 0x20 MSTORE PUSH1 0x40 SWAP1 KECCAK256 DUP1 SLOAD PUSH3 0x10000 SWAP1 DIV PUSH1 0x1 PUSH1 0x1 PUSH1 0x40 SHL SUB AND ISZERO DUP1 ISZERO PUSH2 0x6AB JUMPI POP DUP1 SLOAD PUSH1 0x1 PUSH1 0x50 SHL SWAP1 DIV PUSH1 0x1 PUSH1 0x1 PUSH1 0x40 SHL SUB AND ISZERO JUMPDEST ISZERO PUSH2 0x6C9 JUMPI PUSH1 0x40 MLOAD PUSH4 0x39A603D PUSH1 0xE0 SHL DUP2 MSTORE PUSH1 0x4 ADD PUSH1 0x40 MLOAD DUP1 SWAP2 SUB SWAP1 REVERT JUMPDEST PUSH1 0x0 DUP2 SLOAD PUSH2 0x100 SWAP1 DIV PUSH1 0xFF AND PUSH1 0x4 DUP2 GT ISZERO PUSH2 0x6E6 JUMPI PUSH2 0x6E6 PUSH2 0x12DB JUMP JUMPDEST EQ PUSH2 0x704 JUMPI PUSH1 0x40 MLOAD PUSH4 0x5F15A8F9 PUSH1 0xE0 SHL DUP2 MSTORE PUSH1 0x4 ADD PUSH1 0x40 MLOAD DUP1 SWAP2 SUB SWAP1 REVERT JUMPDEST DUP1 SLOAD PUSH3 0x10000 SWAP1 DIV PUSH1 0x1 PUSH1 0x1 PUSH1 0x40 SHL SUB AND TIMESTAMP LT DUP1 PUSH2 0x733 JUMPI POP DUP1 SLOAD PUSH1 0x1 PUSH1 0x50 SHL SWAP1 DIV PUSH1 0x1 PUSH1 0x1 PUSH1 0x40 SHL SUB AND TIMESTAMP LT ISZERO JUMPDEST ISZERO PUSH2 0x751 JUMPI PUSH1 0x40 MLOAD PUSH4 0x5F15A8F9 PUSH1 0xE0 SHL DUP2 MSTORE PUSH1 0x4 ADD PUSH1 0x40 MLOAD DUP1 SWAP2 SUB SWAP1 REVERT JUMPDEST DUP1 PUSH1 0x1 ADD SLOAD CALLVALUE EQ PUSH2 0x775 JUMPI PUSH1 0x40 MLOAD PUSH4 0x5F15A8F9 PUSH1 0xE0 SHL DUP2 MSTORE PUSH1 0x4 ADD PUSH1 0x40 MLOAD DUP1 SWAP2 SUB SWAP1 REVERT JUMPDEST PUSH2 0x77E DUP3 PUSH2 0x1049 JUMP JUMPDEST PUSH1 0x2 DUP1 SLOAD PUSH1 0x0 SWAP2 DUP3 PUSH2 0x78F DUP4 PUSH2 0x1571 JUMP JUMPDEST SWAP1 SWAP2 SSTORE POP PUSH1 0x40 DUP1 MLOAD PUSH1 0xA0 DUP2 ADD DUP3 MSTORE DUP7 DUP2 MSTORE CALLER PUSH1 0x20 DUP3 ADD MSTORE DUP2 MLOAD PUSH1 0xC0 DUP2 DUP2 ADD DUP5 MSTORE SWAP4 SWAP5 POP SWAP1 SWAP3 SWAP2 DUP4 ADD SWAP2 DUP7 SWAP1 PUSH1 0x6 SWAP1 DUP4 SWAP1 DUP4 SWAP1 DUP1 DUP3 DUP5 CALLDATACOPY PUSH1 0x0 SWAP3 ADD DUP3 SWAP1 MSTORE POP SWAP3 DUP5 MSTORE POP POP TIMESTAMP PUSH1 0x1 PUSH1 0x1 PUSH1 0x40 SHL SUB AND PUSH1 0x20 DUP1 DUP5 ADD SWAP2 SWAP1 SWAP2 MSTORE PUSH1 0x40 SWAP3 DUP4 ADD DUP3 SWAP1 MSTORE DUP5 DUP3 MSTORE PUSH1 0x4 DUP2 MSTORE SWAP1 DUP3 SWAP1 KECCAK256 DUP4 MLOAD DUP2 SSTORE SWAP1 DUP4 ADD MLOAD PUSH1 0x1 DUP3 ADD DUP1 SLOAD PUSH1 0x1 PUSH1 0x1 PUSH1 0xA0 SHL SUB NOT AND PUSH1 0x1 PUSH1 0x1 PUSH1 0xA0 SHL SUB SWAP1 SWAP3 AND SWAP2 SWAP1 SWAP2 OR SWAP1 SSTORE SWAP1 DUP3 ADD MLOAD PUSH2 0x835 SWAP1 PUSH1 0x2 DUP4 ADD SWAP1 PUSH1 0x6 PUSH2 0x121A JUMP JUMPDEST POP PUSH1 0x60 DUP3 ADD MLOAD PUSH1 0x3 SWAP1 SWAP2 ADD DUP1 SLOAD PUSH1 0x80 SWAP1 SWAP4 ADD MLOAD ISZERO ISZERO PUSH1 0x1 PUSH1 0x40 SHL MUL PUSH9 0xFFFFFFFFFFFFFFFFFF NOT SWAP1 SWAP4 AND PUSH1 0x1 PUSH1 0x1 PUSH1 0x40 SHL SUB SWAP1 SWAP3 AND SWAP2 SWAP1 SWAP2 OR SWAP2 SWAP1 SWAP2 OR SWAP1 SSTORE PUSH1 0x0 DUP5 DUP2 MSTORE PUSH1 0x5 PUSH1 0x20 SWAP1 DUP2 MSTORE PUSH1 0x40 DUP3 KECCAK256 DUP1 SLOAD PUSH1 0x1 DUP2 DUP2 ADD DUP4 SSTORE SWAP2 DUP5 MSTORE SWAP2 DUP4 KECCAK256 SWAP1 SWAP2 ADD DUP4 SWAP1 SSTORE PUSH1 0x4 DUP5 ADD DUP1 SLOAD SWAP2 SWAP3 SWAP1 SWAP2 PUSH2 0x8AD SWAP1 DUP5 SWAP1 PUSH2 0x158A JUMP JUMPDEST SWAP3 POP POP DUP2 SWAP1 SSTORE POP CALLVALUE DUP3 PUSH1 0x3 ADD PUSH1 0x0 DUP3 DUP3 SLOAD PUSH2 0x8C8 SWAP2 SWAP1 PUSH2 0x158A JUMP JUMPDEST SWAP3 POP POP DUP2 SWAP1 SSTORE POP CALLER PUSH1 0x1 PUSH1 0x1 PUSH1 0xA0 SHL SUB AND DUP5 DUP3 PUSH32 0x9121DE6E0E413212AC3617D303A321B65FAA5D70BD029011FCA9C14B8E2CBE88 DUP7 CALLVALUE PUSH1 0x40 MLOAD PUSH2 0x90C SWAP3 SWAP2 SWAP1 PUSH2 0x15B4 JUMP JUMPDEST PUSH1 0x40 MLOAD DUP1 SWAP2 SUB SWAP1 LOG4 POP POP PUSH2 0x92D PUSH1 0x1 PUSH1 0x0 DUP1 MLOAD PUSH1 0x20 PUSH2 0x167F DUP4 CODECOPY DUP2 MLOAD SWAP2 MSTORE SSTORE JUMP JUMPDEST POP POP JUMP JUMPDEST PUSH2 0x939 PUSH2 0xF30 JUMP JUMPDEST PUSH2 0x4FD PUSH2 0x117D JUMP JUMPDEST PUSH2 0x949 PUSH2 0xF30 JUMP JUMPDEST PUSH1 0x0 DUP2 DUP2 MSTORE PUSH1 0x3 PUSH1 0x20 MSTORE PUSH1 0x40 SWAP1 KECCAK256 PUSH1 0x1 DUP2 SLOAD PUSH2 0x100 SWAP1 DIV PUSH1 0xFF AND PUSH1 0x4 DUP2 GT ISZERO PUSH2 0x974 JUMPI PUSH2 0x974 PUSH2 0x12DB JUMP JUMPDEST EQ PUSH2 0x992 JUMPI PUSH1 0x40 MLOAD PUSH4 0x8AD69E81 PUSH1 0xE0 SHL DUP2 MSTORE PUSH1 0x4 ADD PUSH1 0x40 MLOAD DUP1 SWAP2 SUB SWAP1 REVERT JUMPDEST PUSH1 0x7 SLOAD PUSH1 0x1 PUSH1 0x1 PUSH1 0xA0 SHL SUB AND PUSH2 0x9BB JUMPI PUSH1 0x40 MLOAD PUSH4 0xDA8EC847 PUSH1 0xE0 SHL DUP2 MSTORE PUSH1 0x4 ADD PUSH1 0x40 MLOAD DUP1 SWAP2 SUB SWAP1 REVERT JUMPDEST PUSH1 0x7 SLOAD PUSH1 0x40 MLOAD PUSH4 0x2F215DDF PUSH1 0xE2 SHL DUP2 MSTORE PUSH1 0x4 DUP2 ADD DUP5 SWAP1 MSTORE PUSH1 0x0 SWAP2 PUSH1 0x1 PUSH1 0x1 PUSH1 0xA0 SHL SUB AND SWAP1 PUSH4 0xBC85777C SWAP1 PUSH1 0x24 ADD PUSH1 0x20 PUSH1 0x40 MLOAD DUP1 DUP4 SUB DUP2 PUSH1 0x0 DUP8 GAS CALL ISZERO DUP1 ISZERO PUSH2 0xA07 JUMPI RETURNDATASIZE PUSH1 0x0 DUP1 RETURNDATACOPY RETURNDATASIZE PUSH1 0x0 REVERT JUMPDEST POP POP POP POP PUSH1 0x40 MLOAD RETURNDATASIZE PUSH1 0x1F NOT PUSH1 0x1F DUP3 ADD AND DUP3 ADD DUP1 PUSH1 0x40 MSTORE POP DUP2 ADD SWAP1 PUSH2 0xA2B SWAP2 SWAP1 PUSH2 0x15F7 JUMP JUMPDEST PUSH1 0x6 DUP4 ADD DUP2 SWAP1 SSTORE DUP3 SLOAD PUSH2 0xFF00 NOT AND PUSH2 0x200 OR DUP4 SSTORE PUSH1 0x40 MLOAD DUP2 DUP2 MSTORE SWAP1 SWAP2 POP DUP4 SWAP1 PUSH32 0xC6F253DE430148D7581A940518A73A6D98EFC85EA9162887A3918443BA67C212 SWAP1 PUSH1 0x20 ADD PUSH1 0x40 MLOAD DUP1 SWAP2 SUB SWAP1 LOG2 POP POP POP JUMP JUMPDEST PUSH2 0xA84 PUSH2 0xF30 JUMP JUMPDEST PUSH1 0x0 DUP2 DUP2 MSTORE PUSH1 0x3 PUSH1 0x20 MSTORE PUSH1 0x40 DUP2 KECCAK256 SWAP1 DUP2 SLOAD PUSH2 0x100 SWAP1 DIV PUSH1 0xFF AND PUSH1 0x4 DUP2 GT ISZERO PUSH2 0xAAE JUMPI PUSH2 0xAAE PUSH2 0x12DB JUMP JUMPDEST EQ PUSH2 0xACC JUMPI PUSH1 0x40 MLOAD PUSH4 0x5F15A8F9 PUSH1 0xE0 SHL DUP2 MSTORE PUSH1 0x4 ADD PUSH1 0x40 MLOAD DUP1 SWAP2 SUB SWAP1 REVERT JUMPDEST DUP1 SLOAD PUSH2 0xFF00 NOT AND PUSH2 0x100 OR DUP2 SSTORE PUSH1 0x4 DUP2 ADD SLOAD PUSH1 0x3 DUP3 ADD SLOAD PUSH1 0x40 DUP1 MLOAD SWAP3 DUP4 MSTORE PUSH1 0x20 DUP4 ADD SWAP2 SWAP1 SWAP2 MSTORE DUP4 SWAP2 PUSH32 0x23D964EC419DDE6568A63A14F96B7F92B153196A4CDA5D4610DBCA86F4081646 SWAP2 ADD PUSH1 0x40 MLOAD DUP1 SWAP2 SUB SWAP1 LOG2 POP POP JUMP JUMPDEST PUSH1 0x0 PUSH2 0xB2D PUSH2 0xF30 JUMP JUMPDEST DUP6 PUSH1 0x1 PUSH1 0x1 PUSH1 0x40 SHL SUB AND DUP6 PUSH1 0x1 PUSH1 0x1 PUSH1 0x40 SHL SUB AND GT PUSH2 0xB5F JUMPI PUSH1 0x40 MLOAD PUSH4 0x392334ED PUSH1 0xE0 SHL DUP2 MSTORE PUSH1 0x4 ADD PUSH1 0x40 MLOAD DUP1 SWAP2 SUB SWAP1 REVERT JUMPDEST DUP4 PUSH1 0x0 SUB PUSH2 0xB80 JUMPI PUSH1 0x40 MLOAD PUSH4 0x392334ED PUSH1 0xE0 SHL DUP2 MSTORE PUSH1 0x4 ADD PUSH1 0x40 MLOAD DUP1 SWAP2 SUB SWAP1 REVERT JUMPDEST PUSH1 0x1 DUP1 SLOAD SWAP1 PUSH1 0x0 PUSH2 0xB90 DUP4 PUSH2 0x1571 JUMP JUMPDEST SWAP2 SWAP1 POP SSTORE SWAP1 POP PUSH1 0x40 MLOAD DUP1 PUSH2 0x140 ADD PUSH1 0x40 MSTORE DUP1 DUP9 PUSH1 0x3 DUP2 GT ISZERO PUSH2 0xBB4 JUMPI PUSH2 0xBB4 PUSH2 0x12DB JUMP JUMPDEST DUP2 MSTORE PUSH1 0x20 ADD PUSH1 0x0 DUP2 MSTORE PUSH1 0x20 ADD DUP8 PUSH1 0x1 PUSH1 0x1 PUSH1 0x40 SHL SUB AND DUP2 MSTORE PUSH1 0x20 ADD DUP7 PUSH1 0x1 PUSH1 0x1 PUSH1 0x40 SHL SUB AND DUP2 MSTORE PUSH1 0x20 ADD DUP6 DUP2 MSTORE PUSH1 0x20 ADD DUP5 DUP2 MSTORE PUSH1 0x20 ADD PUSH1 0x0 DUP2 MSTORE PUSH1 0x20 ADD PUSH1 0x0 DUP2 MSTORE PUSH1 0x20 ADD DUP4 DUP2 MSTORE PUSH1 0x20 ADD PUSH1 0x0 DUP2 MSTORE POP PUSH1 0x3 PUSH1 0x0 DUP4 DUP2 MSTORE PUSH1 0x20 ADD SWAP1 DUP2 MSTORE PUSH1 0x20 ADD PUSH1 0x0 KECCAK256 PUSH1 0x0 DUP3 ADD MLOAD DUP2 PUSH1 0x0 ADD PUSH1 0x0 PUSH2 0x100 EXP DUP2 SLOAD DUP2 PUSH1 0xFF MUL NOT AND SWAP1 DUP4 PUSH1 0x3 DUP2 GT ISZERO PUSH2 0xC40 JUMPI PUSH2 0xC40 PUSH2 0x12DB JUMP JUMPDEST MUL OR SWAP1 SSTORE POP PUSH1 0x20 DUP3 ADD MLOAD DUP2 SLOAD DUP3 SWAP1 PUSH2 0xFF00 NOT AND PUSH2 0x100 DUP4 PUSH1 0x4 DUP2 GT ISZERO PUSH2 0xC68 JUMPI PUSH2 0xC68 PUSH2 0x12DB JUMP JUMPDEST MUL OR SWAP1 SSTORE POP PUSH1 0x40 DUP3 DUP2 ADD MLOAD DUP3 SLOAD PUSH1 0x60 DUP6 ADD MLOAD PUSH1 0x1 PUSH1 0x1 PUSH1 0x40 SHL SUB SWAP1 DUP2 AND PUSH1 0x1 PUSH1 0x50 SHL MUL PUSH8 0xFFFFFFFFFFFFFFFF PUSH1 0x50 SHL NOT SWAP2 SWAP1 SWAP4 AND PUSH3 0x10000 MUL AND PUSH18 0xFFFFFFFFFFFFFFFFFFFFFFFFFFFFFFFF0000 NOT SWAP1 SWAP2 AND OR OR DUP3 SSTORE PUSH1 0x80 DUP4 ADD MLOAD PUSH1 0x1 DUP4 ADD SSTORE PUSH1 0xA0 DUP4 ADD MLOAD PUSH1 0x2 DUP4 ADD SSTORE PUSH1 0xC0 DUP4 ADD MLOAD PUSH1 0x3 DUP4 ADD SSTORE PUSH1 0xE0 DUP4 ADD MLOAD PUSH1 0x4 DUP4 ADD SSTORE PUSH2 0x100 DUP4 ADD MLOAD PUSH1 0x5 DUP4 ADD SSTORE PUSH2 0x120 SWAP1 SWAP3 ADD MLOAD PUSH1 0x6 SWAP1 SWAP2 ADD SSTORE MLOAD DUP2 SWAP1 PUSH32 0x438034B56A2DE8C6CE3FF93698B6A894194AB89874C40CC9CFFFCFD84F608F0F SWAP1 PUSH2 0xD35 SWAP1 DUP11 SWAP1 DUP11 SWAP1 DUP11 SWAP1 DUP11 SWAP1 DUP11 SWAP1 PUSH2 0x1610 JUMP JUMPDEST PUSH1 0x40 MLOAD DUP1 SWAP2 SUB SWAP1 LOG2 SWAP7 SWAP6 POP POP POP POP POP POP JUMP JUMPDEST PUSH2 0xD4F PUSH2 0xF30 JUMP JUMPDEST PUSH1 0x0 DUP6 DUP2 MSTORE PUSH1 0x3 PUSH1 0x20 MSTORE PUSH1 0x40 SWAP1 KECCAK256 PUSH1 0x2 DUP2 SLOAD PUSH2 0x100 SWAP1 DIV PUSH1 0xFF AND PUSH1 0x4 DUP2 GT ISZERO PUSH2 0xD7A JUMPI PUSH2 0xD7A PUSH2 0x12DB JUMP JUMPDEST EQ ISZERO DUP1 ISZERO PUSH2 0xDA3 JUMPI POP PUSH1 0x1 DUP2 SLOAD PUSH2 0x100 SWAP1 DIV PUSH1 0xFF AND PUSH1 0x4 DUP2 GT ISZERO PUSH2 0xDA0 JUMPI PUSH2 0xDA0 PUSH2 0x12DB JUMP JUMPDEST EQ ISZERO JUMPDEST ISZERO PUSH2 0xDC1 JUMPI PUSH1 0x40 MLOAD PUSH4 0x8AD69E81 PUSH1 0xE0 SHL DUP2 MSTORE PUSH1 0x4 ADD PUSH1 0x40 MLOAD DUP1 SWAP2 SUB SWAP1 REVERT JUMPDEST PUSH1 0x0 DUP5 DUP2 JUMPDEST DUP2 DUP2 LT ISZERO PUSH2 0xEA0 JUMPI PUSH1 0x0 PUSH1 0x4 PUSH1 0x0 DUP11 DUP11 DUP6 DUP2 DUP2 LT PUSH2 0xDE6 JUMPI PUSH2 0xDE6 PUSH2 0x164D JUMP JUMPDEST SWAP1 POP PUSH1 0x20 MUL ADD CALLDATALOAD DUP2 MSTORE PUSH1 0x20 ADD SWAP1 DUP2 MSTORE PUSH1 0x20 ADD PUSH1 0x0 KECCAK256 SWAP1 POP DUP10 DUP2 PUSH1 0x0 ADD SLOAD EQ PUSH2 0xE21 JUMPI PUSH1 0x40 MLOAD PUSH4 0x39A603D PUSH1 0xE0 SHL DUP2 MSTORE PUSH1 0x4 ADD PUSH1 0x40 MLOAD DUP1 SWAP2 SUB SWAP1 REVERT JUMPDEST DUP7 DUP7 DUP4 DUP2 DUP2 LT PUSH2 0xE33 JUMPI PUSH2 0xE33 PUSH2 0x164D JUMP JUMPDEST PUSH1 0x1 DUP5 ADD SLOAD PUSH1 0x1 PUSH1 0x1 PUSH1 0xA0 SHL SUB AND PUSH1 0x0 SWAP1 DUP2 MSTORE PUSH1 0x6 PUSH1 0x20 SWAP1 DUP2 MSTORE PUSH1 0x40 DUP3 KECCAK256 DUP1 SLOAD SWAP4 SWAP1 SWAP2 MUL SWAP5 SWAP1 SWAP5 ADD CALLDATALOAD SWAP4 SWAP3 POP SWAP1 PUSH2 0xE6B SWAP1 DUP5 SWAP1 PUSH2 0x158A JUMP JUMPDEST SWAP1 SWAP2 SSTORE POP DUP8 SWAP1 POP DUP7 DUP4 DUP2 DUP2 LT PUSH2 0xE83 JUMPI PUSH2 0xE83 PUSH2 0x164D JUMP JUMPDEST SWAP1 POP PUSH1 0x20 MUL ADD CALLDATALOAD DUP5 PUSH2 0xE95 SWAP2 SWAP1 PUSH2 0x158A JUMP JUMPDEST SWAP4 POP POP PUSH1 0x1 ADD PUSH2 0xDC6 JUMP JUMPDEST POP DUP3 SLOAD PUSH2 0xFF00 NOT AND PUSH2 0x300 OR DUP4 SSTORE PUSH1 0x40 DUP1 MLOAD DUP3 DUP2 MSTORE PUSH1 0x20 DUP2 ADD DUP5 SWAP1 MSTORE DUP2 MLOAD DUP11 SWAP3 PUSH32 0x5534AF381AED5631BAD664F705A661E5AA78F5938C3CAAE504FA7E381CC1D381 SWAP3 DUP3 SWAP1 SUB ADD SWAP1 LOG2 POP POP POP POP POP POP POP POP JUMP JUMPDEST PUSH2 0xEFA PUSH2 0xF30 JUMP JUMPDEST PUSH1 0x1 PUSH1 0x1 PUSH1 0xA0 SHL SUB DUP2 AND PUSH2 0xF24 JUMPI PUSH1 0x40 MLOAD PUSH4 0x1E4FBDF7 PUSH1 0xE0 SHL DUP2 MSTORE PUSH1 0x0 PUSH1 0x4 DUP3 ADD MSTORE PUSH1 0x24 ADD PUSH2 0x5F7 JUMP JUMPDEST PUSH2 0xF2D DUP2 PUSH2 0xFCE JUMP JUMPDEST POP JUMP JUMPDEST PUSH1 0x0 SLOAD PUSH1 0x1 PUSH1 0x1 PUSH1 0xA0 SHL SUB AND CALLER EQ PUSH2 0x4FD JUMPI PUSH1 0x40 MLOAD PUSH4 0x118CDAA7 PUSH1 0xE0 SHL DUP2 MSTORE CALLER PUSH1 0x4 DUP3 ADD MSTORE PUSH1 0x24 ADD PUSH2 0x5F7 JUMP JUMPDEST PUSH2 0xF65 PUSH2 0x11C0 JUMP JUMPDEST PUSH1 0x0 DUP1 SLOAD PUSH1 0xFF PUSH1 0xA0 SHL NOT AND SWAP1 SSTORE PUSH32 0x5DB9EE0A495BF2E6FF9C91A7834C1BA4FDD244A5E8AA4E537BD38AEAE4B073AA CALLER JUMPDEST PUSH1 0x40 MLOAD PUSH1 0x1 PUSH1 0x1 PUSH1 0xA0 SHL SUB SWAP1 SWAP2 AND DUP2 MSTORE PUSH1 0x20 ADD PUSH1 0x40 MLOAD DUP1 SWAP2 SUB SWAP1 LOG1 JUMP JUMPDEST PUSH2 0xFBA PUSH2 0x11EA JUMP JUMPDEST PUSH1 0x2 PUSH1 0x0 DUP1 MLOAD PUSH1 0x20 PUSH2 0x167F DUP4 CODECOPY DUP2 MLOAD SWAP2 MSTORE SSTORE JUMP JUMPDEST PUSH1 0x0 DUP1 SLOAD PUSH1 0x1 PUSH1 0x1 PUSH1 0xA0 SHL SUB DUP4 DUP2 AND PUSH1 0x1 PUSH1 0x1 PUSH1 0xA0 SHL SUB NOT DUP4 AND DUP2 OR DUP5 SSTORE PUSH1 0x40 MLOAD SWAP2 SWAP1 SWAP3 AND SWAP3 DUP4 SWAP2 PUSH32 0x8BE0079C531659141344CD1FD0A4F28419497F9722A3DAAFE3B4186F6B6457E0 SWAP2 SWAP1 LOG3 POP POP JUMP JUMPDEST PUSH1 0x0 SLOAD PUSH1 0x1 PUSH1 0xA0 SHL SWAP1 DIV PUSH1 0xFF AND ISZERO PUSH2 0x4FD JUMPI PUSH1 0x40 MLOAD PUSH4 0xD93C0665 PUSH1 0xE0 SHL DUP2 MSTORE PUSH1 0x4 ADD PUSH1 0x40 MLOAD DUP1 SWAP2 SUB SWAP1 REVERT JUMPDEST PUSH1 0x0 JUMPDEST PUSH1 0x6 DUP2 LT ISZERO PUSH2 0x10D8 JUMPI PUSH1 0x1 DUP3 DUP3 PUSH1 0x6 DUP2 LT PUSH2 0x1069 JUMPI PUSH2 0x1069 PUSH2 0x164D JUMP JUMPDEST PUSH1 0x20 MUL ADD PUSH1 0x20 DUP2 ADD SWAP1 PUSH2 0x107C SWAP2 SWAP1 PUSH2 0x1663 JUMP JUMPDEST PUSH1 0xFF AND LT DUP1 PUSH2 0x10B2 JUMPI POP PUSH1 0x31 DUP3 DUP3 PUSH1 0x6 DUP2 LT PUSH2 0x109A JUMPI PUSH2 0x109A PUSH2 0x164D JUMP JUMPDEST PUSH1 0x20 MUL ADD PUSH1 0x20 DUP2 ADD SWAP1 PUSH2 0x10AD SWAP2 SWAP1 PUSH2 0x1663 JUMP JUMPDEST PUSH1 0xFF AND GT JUMPDEST ISZERO PUSH2 0x10D0 JUMPI PUSH1 0x40 MLOAD PUSH4 0x1D2FD6AD PUSH1 0xE1 SHL DUP2 MSTORE PUSH1 0x4 ADD PUSH1 0x40 MLOAD DUP1 SWAP2 SUB SWAP1 REVERT JUMPDEST PUSH1 0x1 ADD PUSH2 0x104C JUMP JUMPDEST POP PUSH1 0x0 JUMPDEST PUSH1 0x6 DUP2 LT ISZERO PUSH2 0x92D JUMPI PUSH1 0x0 PUSH2 0x10F2 DUP3 PUSH1 0x1 PUSH2 0x158A JUMP JUMPDEST SWAP1 POP JUMPDEST PUSH1 0x6 DUP2 LT ISZERO PUSH2 0x1174 JUMPI DUP3 DUP2 PUSH1 0x6 DUP2 LT PUSH2 0x1110 JUMPI PUSH2 0x1110 PUSH2 0x164D JUMP JUMPDEST PUSH1 0x20 MUL ADD PUSH1 0x20 DUP2 ADD SWAP1 PUSH2 0x1123 SWAP2 SWAP1 PUSH2 0x1663 JUMP JUMPDEST PUSH1 0xFF AND DUP4 DUP4 PUSH1 0x6 DUP2 LT PUSH2 0x1138 JUMPI PUSH2 0x1138 PUSH2 0x164D JUMP JUMPDEST PUSH1 0x20 MUL ADD PUSH1 0x20 DUP2 ADD SWAP1 PUSH2 0x114B SWAP2 SWAP1 PUSH2 0x1663 JUMP JUMPDEST PUSH1 0xFF AND SUB PUSH2 0x116C JUMPI PUSH1 0x40 MLOAD PUSH4 0x1D2FD6AD PUSH1 0xE1 SHL DUP2 MSTORE PUSH1 0x4 ADD PUSH1 0x40 MLOAD DUP1 SWAP2 SUB SWAP1 REVERT JUMPDEST PUSH1 0x1 ADD PUSH2 0x10F5 JUMP JUMPDEST POP PUSH1 0x1 ADD PUSH2 0x10DC JUMP JUMPDEST PUSH2 0x1185 PUSH2 0x101E JUMP JUMPDEST PUSH1 0x0 DUP1 SLOAD PUSH1 0xFF PUSH1 0xA0 SHL NOT AND PUSH1 0x1 PUSH1 0xA0 SHL OR SWAP1 SSTORE PUSH32 0x62E78CEA01BEE320CD4E420270B5EA74000D11B0C9F74754EBDBFC544B05A258 PUSH2 0xF95 CALLER SWAP1 JUMP JUMPDEST PUSH1 0x0 SLOAD PUSH1 0x1 PUSH1 0xA0 SHL SWAP1 DIV PUSH1 0xFF AND PUSH2 0x4FD JUMPI PUSH1 0x40 MLOAD PUSH4 0x8DFC202B PUSH1 0xE0 SHL DUP2 MSTORE PUSH1 0x4 ADD PUSH1 0x40 MLOAD DUP1 SWAP2 SUB SWAP1 REVERT JUMPDEST PUSH1 0x0 DUP1 MLOAD PUSH1 0x20 PUSH2 0x167F DUP4 CODECOPY DUP2 MLOAD SWAP2 MSTORE SLOAD PUSH1 0x2 SUB PUSH2 0x4FD JUMPI PUSH1 0x40 MLOAD PUSH4 0x3EE5AEB5 PUSH1 0xE0 SHL DUP2 MSTORE PUSH1 0x4 ADD PUSH1 0x40 MLOAD DUP1 SWAP2 SUB SWAP1 REVERT JUMPDEST PUSH1 0x1 DUP4 ADD SWAP2 DUP4 SWAP1 DUP3 ISZERO PUSH2 0x129D JUMPI SWAP2 PUSH1 0x20 MUL DUP3 ADD PUSH1 0x0 JUMPDEST DUP4 DUP3 GT ISZERO PUSH2 0x126E JUMPI DUP4 MLOAD DUP4 DUP3 PUSH2 0x100 EXP DUP2 SLOAD DUP2 PUSH1 0xFF MUL NOT AND SWAP1 DUP4 PUSH1 0xFF AND MUL OR SWAP1 SSTORE POP SWAP3 PUSH1 0x20 ADD SWAP3 PUSH1 0x1 ADD PUSH1 0x20 DUP2 PUSH1 0x0 ADD DIV SWAP3 DUP4 ADD SWAP3 PUSH1 0x1 SUB MUL PUSH2 0x1230 JUMP JUMPDEST DUP1 ISZERO PUSH2 0x129B JUMPI DUP3 DUP2 PUSH2 0x100 EXP DUP2 SLOAD SWAP1 PUSH1 0xFF MUL NOT AND SWAP1 SSTORE PUSH1 0x1 ADD PUSH1 0x20 DUP2 PUSH1 0x0 ADD DIV SWAP3 DUP4 ADD SWAP3 PUSH1 0x1 SUB MUL PUSH2 0x126E JUMP JUMPDEST POP JUMPDEST POP PUSH2 0x12A9 SWAP3 SWAP2 POP PUSH2 0x12AD JUMP JUMPDEST POP SWAP1 JUMP JUMPDEST JUMPDEST DUP1 DUP3 GT ISZERO PUSH2 0x12A9 JUMPI PUSH1 0x0 DUP2 SSTORE PUSH1 0x1 ADD PUSH2 0x12AE JUMP JUMPDEST PUSH1 0x0 PUSH1 0x20 DUP3 DUP5 SUB SLT ISZERO PUSH2 0x12D4 JUMPI PUSH1 0x0 DUP1 REVERT JUMPDEST POP CALLDATALOAD SWAP2 SWAP1 POP JUMP JUMPDEST PUSH4 0x4E487B71 PUSH1 0xE0 SHL PUSH1 0x0 MSTORE PUSH1 0x21 PUSH1 0x4 MSTORE PUSH1 0x24 PUSH1 0x0 REVERT JUMPDEST PUSH1 0x4 DUP2 LT PUSH2 0x1301 JUMPI PUSH2 0x1301 PUSH2 0x12DB JUMP JUMPDEST SWAP1 MSTORE JUMP JUMPDEST PUSH2 0x140 DUP2 ADD PUSH2 0x1314 DUP3 DUP14 PUSH2 0x12F1 JUMP JUMPDEST PUSH1 0x5 DUP12 LT PUSH2 0x1324 JUMPI PUSH2 0x1324 PUSH2 0x12DB JUMP JUMPDEST PUSH1 0x20 DUP3 ADD SWAP11 SWAP1 SWAP11 MSTORE PUSH1 0x1 PUSH1 0x1 PUSH1 0x40 SHL SUB SWAP9 DUP10 AND PUSH1 0x40 DUP3 ADD MSTORE SWAP7 SWAP1 SWAP8 AND PUSH1 0x60 DUP8 ADD MSTORE PUSH1 0x80 DUP7 ADD SWAP5 SWAP1 SWAP5 MSTORE PUSH1 0xA0 DUP6 ADD SWAP3 SWAP1 SWAP3 MSTORE PUSH1 0xC0 DUP5 ADD MSTORE PUSH1 0xE0 DUP4 ADD MSTORE PUSH2 0x100 DUP3 ADD MSTORE PUSH2 0x120 ADD MSTORE SWAP2 SWAP1 POP JUMP JUMPDEST PUSH1 0x20 DUP1 DUP3 MSTORE DUP3 MLOAD DUP3 DUP3 ADD DUP2 SWAP1 MSTORE PUSH1 0x0 SWAP2 SWAP1 DUP5 DUP3 ADD SWAP1 PUSH1 0x40 DUP6 ADD SWAP1 DUP5 JUMPDEST DUP2 DUP2 LT ISZERO PUSH2 0x13A7 JUMPI DUP4 MLOAD DUP4 MSTORE SWAP3 DUP5 ADD SWAP3 SWAP2 DUP5 ADD SWAP2 PUSH1 0x1 ADD PUSH2 0x138B JUMP JUMPDEST POP SWAP1 SWAP7 SWAP6 POP POP POP POP POP POP JUMP JUMPDEST PUSH1 0x0 PUSH1 0x20 DUP3 DUP5 SUB SLT ISZERO PUSH2 0x13C5 JUMPI PUSH1 0x0 DUP1 REVERT JUMPDEST DUP2 CALLDATALOAD PUSH1 0x1 PUSH1 0x1 PUSH1 0xA0 SHL SUB DUP2 AND DUP2 EQ PUSH2 0x13DC JUMPI PUSH1 0x0 DUP1 REVERT JUMPDEST SWAP4 SWAP3 POP POP POP JUMP JUMPDEST PUSH1 0x0 DUP1 PUSH1 0xE0 DUP4 DUP6 SUB SLT ISZERO PUSH2 0x13F6 JUMPI PUSH1 0x0 DUP1 REVERT JUMPDEST DUP3 CALLDATALOAD SWAP2 POP DUP4 PUSH1 0xE0 DUP5 ADD GT ISZERO PUSH2 0x140A JUMPI PUSH1 0x0 DUP1 REVERT JUMPDEST POP SWAP3 PUSH1 0x20 SWAP2 SWAP1 SWAP2 ADD SWAP2 POP JUMP JUMPDEST DUP1 CALLDATALOAD PUSH1 0x1 PUSH1 0x1 PUSH1 0x40 SHL SUB DUP2 AND DUP2 EQ PUSH2 0x142D JUMPI PUSH1 0x0 DUP1 REVERT JUMPDEST SWAP2 SWAP1 POP JUMP JUMPDEST PUSH1 0x0 DUP1 PUSH1 0x0 DUP1 PUSH1 0x0 DUP1 PUSH1 0xC0 DUP8 DUP10 SUB SLT ISZERO PUSH2 0x144B JUMPI PUSH1 0x0 DUP1 REVERT JUMPDEST DUP7 CALLDATALOAD PUSH1 0x4 DUP2 LT PUSH2 0x145A JUMPI PUSH1 0x0 DUP1 REVERT JUMPDEST SWAP6 POP PUSH2 0x1468 PUSH1 0x20 DUP9 ADD PUSH2 0x1416 JUMP JUMPDEST SWAP5 POP PUSH2 0x1476 PUSH1 0x40 DUP9 ADD PUSH2 0x1416 JUMP JUMPDEST SWAP4 POP PUSH1 0x60 DUP8 ADD CALLDATALOAD SWAP3 POP PUSH1 0x80 DUP8 ADD CALLDATALOAD SWAP2 POP PUSH1 0xA0 DUP8 ADD CALLDATALOAD SWAP1 POP SWAP3 SWAP6 POP SWAP3 SWAP6 POP SWAP3 SWAP6 JUMP JUMPDEST PUSH1 0x0 DUP1 DUP4 PUSH1 0x1F DUP5 ADD SLT PUSH2 0x14A9 JUMPI PUSH1 0x0 DUP1 REVERT JUMPDEST POP DUP2 CALLDATALOAD PUSH1 0x1 PUSH1 0x1 PUSH1 0x40 SHL SUB DUP2 GT ISZERO PUSH2 0x14C0 JUMPI PUSH1 0x0 DUP1 REVERT JUMPDEST PUSH1 0x20 DUP4 ADD SWAP2 POP DUP4 PUSH1 0x20 DUP3 PUSH1 0x5 SHL DUP6 ADD ADD GT ISZERO PUSH2 0x14DB JUMPI PUSH1 0x0 DUP1 REVERT JUMPDEST SWAP3 POP SWAP3 SWAP1 POP JUMP JUMPDEST PUSH1 0x0 DUP1 PUSH1 0x0 DUP1 PUSH1 0x0 PUSH1 0x60 DUP7 DUP9 SUB SLT ISZERO PUSH2 0x14FA JUMPI PUSH1 0x0 DUP1 REVERT JUMPDEST DUP6 CALLDATALOAD SWAP5 POP PUSH1 0x20 DUP7 ADD CALLDATALOAD PUSH1 0x1 PUSH1 0x1 PUSH1 0x40 SHL SUB DUP1 DUP3 GT ISZERO PUSH2 0x1518 JUMPI PUSH1 0x0 DUP1 REVERT JUMPDEST PUSH2 0x1524 DUP10 DUP4 DUP11 ADD PUSH2 0x1497 JUMP JUMPDEST SWAP1 SWAP7 POP SWAP5 POP PUSH1 0x40 DUP9 ADD CALLDATALOAD SWAP2 POP DUP1 DUP3 GT ISZERO PUSH2 0x153D JUMPI PUSH1 0x0 DUP1 REVERT JUMPDEST POP PUSH2 0x154A DUP9 DUP3 DUP10 ADD PUSH2 0x1497 JUMP JUMPDEST SWAP7 SWAP10 SWAP6 SWAP9 POP SWAP4 SWAP7 POP SWAP3 SWAP5 SWAP4 SWAP3 POP POP POP JUMP JUMPDEST PUSH4 0x4E487B71 PUSH1 0xE0 SHL PUSH1 0x0 MSTORE PUSH1 0x11 PUSH1 0x4 MSTORE PUSH1 0x24 PUSH1 0x0 REVERT JUMPDEST PUSH1 0x0 PUSH1 0x1 DUP3 ADD PUSH2 0x1583 JUMPI PUSH2 0x1583 PUSH2 0x155B JUMP JUMPDEST POP PUSH1 0x1 ADD SWAP1 JUMP JUMPDEST DUP1 DUP3 ADD DUP1 DUP3 GT ISZERO PUSH2 0x159D JUMPI PUSH2 0x159D PUSH2 0x155B JUMP JUMPDEST SWAP3 SWAP2 POP POP JUMP JUMPDEST DUP1 CALLDATALOAD PUSH1 0xFF DUP2 AND DUP2 EQ PUSH2 0x142D JUMPI PUSH1 0x0 DUP1 REVERT JUMPDEST PUSH1 0xE0 DUP2 ADD DUP2 DUP5 PUSH1 0x0 JUMPDEST PUSH1 0x6 DUP2 LT ISZERO PUSH2 0x15E7 JUMPI PUSH1 0xFF PUSH2 0x15D1 DUP4 PUSH2 0x15A3 JUMP JUMPDEST AND DUP4 MSTORE PUSH1 0x20 SWAP3 DUP4 ADD SWAP3 SWAP2 SWAP1 SWAP2 ADD SWAP1 PUSH1 0x1 ADD PUSH2 0x15BD JUMP JUMPDEST POP POP POP DUP3 PUSH1 0xC0 DUP4 ADD MSTORE SWAP4 SWAP3 POP POP POP JUMP JUMPDEST PUSH1 0x0 PUSH1 0x20 DUP3 DUP5 SUB SLT ISZERO PUSH2 0x1609 JUMPI PUSH1 0x0 DUP1 REVERT JUMPDEST POP MLOAD SWAP2 SWAP1 POP JUMP JUMPDEST PUSH1 0xA0 DUP2 ADD PUSH2 0x161E DUP3 DUP9 PUSH2 0x12F1 JUMP JUMPDEST PUSH1 0x1 PUSH1 0x1 PUSH1 0x40 SHL SUB DUP1 DUP8 AND PUSH1 0x20 DUP5 ADD MSTORE DUP1 DUP7 AND PUSH1 0x40 DUP5 ADD MSTORE POP DUP4 PUSH1 0x60 DUP4 ADD MSTORE DUP3 PUSH1 0x80 DUP4 ADD MSTORE SWAP7 SWAP6 POP POP POP POP POP POP JUMP JUMPDEST PUSH4 0x4E487B71 PUSH1 0xE0 SHL PUSH1 0x0 MSTORE PUSH1 0x32 PUSH1 0x4 MSTORE PUSH1 0x24 PUSH1 0x0 REVERT JUMPDEST PUSH1 0x0 PUSH1 0x20 DUP3 DUP5 SUB SLT ISZERO PUSH2 0x1675 JUMPI PUSH1 0x0 DUP1 REVERT JUMPDEST PUSH2 0x13DC DUP3 PUSH2 0x15A3 JUMP INVALID SWAP12 PUSH24 0x9B17422D0DF92223018B32B4D1FA46E071723D6817E2486D STOP EXTCODESIZE 0xEC 0xC5 PUSH0 STOP LOG2 PUSH5 0x6970667358 0x22 SLT KECCAK256 PUSH5 0xD2F7C4EED2 SWAP4 0xE 0xDF SUB DUP9 0xDE CALLDATALOAD DUP15 SWAP16 RETURNDATACOPY JUMP SWAP13 0x1E 0xBF MULMOD 0xDA 0xC7 0xE6 0xEB SWAP8 0xCF 0x29 PUSH3 0xF629DF PUSH5 0x736F6C6343 STOP ADDMOD XOR STOP CALLER "},"methodIdentifiers":{"buyTicket(uint256,uint8[6])":"7de99509","claimPrize()":"70740ac9","closeDraw(uint256)":"9c9ad21a","createDraw(uint8,uint64,uint64,uint256,uint256,uint256)":"a9bb8798","draws(uint256)":"0cc36c36","fulfillDraw(uint256,uint256[],uint256[])":"ab9d635e","getDrawTicketIds(uint256)":"1de78499","nextDrawId()":"22482f64","nextTicketId()":"6031a52f","owner()":"8da5cb5b","pause()":"8456cb59","paused()":"5c975abb","pendingClaims(address)":"ca78533d","renounceOwnership()":"715018a6","requestDrawRandomness(uint256)":"86852703","setVRFCoordinator(address)":"44ff81ce","tickets(uint256)":"50b44712","transferOwnership(address)":"f2fde38b","unpause()":"3f4ba83a","vrfCoordinator()":"a3e56fa8"}}}}}